:1000000016C1000045C1000043C1000041C100000D
:100010003FC100003DC100003BC1000039C10000EC
:1000200037C1000035C1000033C1000031C10000FC
:100030002FC10000CCC300002BC1000029C100006B
:1000400027C1000025C1000023C1000021C100001C
:100050001FC100001DC100001BC100005EC50000E3
:1000600017C10000CDC40000A2C4000011C10000EF
:100070000FC100000DC100000BC1000009C100004C
:1000800007C1000005C1000003C1000001C100005C
:1000900065C400003AC40000FBC00000F9C00000C5
:1000A000F7C00000F5C00000F3C00000F1C0000080
:1000B000EFC00000EDC00000EBC00000E9C0000090
:1000C000E7C00000E5C00000E3C00000E1C00000A0
:1000D000DFC00000DDC00000DBC00000D9C00000B0
:1000E000D7C00000C802CB02BA02BE02C40202039B
:1000F000CF02D302D902DD02E102E702EB02EF02F6
:100100000203F502F902FD0200002100240027008D
:100110002A002D0030003300010100000401070116
:100120000A01000020002300260029002C002F00D7
:1001300032000001000003010601090100000A0B62
:1001400002090C0D0E080703040100000000000066
:10015000000000000000000000000000000000009F
:10016000000000000000000012111000000000005C
:10017000000000000000000000000000000000007F
:1001800000000102102020080810204010204080AC
:10019000020102010804020101020408102040804B
:1001A00080402010080402018004020180402010D9
:1001B0000804020108040201010204081020408022
:1001C00001020408102040800000220025002800C1
:1001D0002B002E003100340002010000050108014F
:1001E0000B010505050507050808080802020202BB
:1001F0000A0A0808040404040101010101010101C3
:100200000303030303030303040707070C0C0C0C8D
:100210000C0C0C0C02020202060606060606060676
:100220000B0B0B0B0B0B0B0B0200D40DC50D11248C
:100230001FBECFEFD1E2DEBFCDBF00E00CBF24E098
:10024000ACE8B2E001C01D92A03AB207E1F712E0BB
:10025000A0E0B2E0E4E3F3E200E00BBF02C00790ED
:100260000D92AC38B107D9F711E0C6E1D1E000E05A
:1002700006C021970109802FFE010E945C0FC53145
:10028000D10780E00807A9F70E94220B0C9489117E
:10029000B7CECF92DF92EF92FF920F931F93CF933F
:1002A000DF936C017A018B01C0E0D0E0CE15DF0551
:1002B00089F0D8016D918D01D601ED91FC910190ED
:1002C000F081E02DC6011995892B11F47E0102C041
:1002D0002196ECCFC701DF91CF911F910F91FF9035
:1002E000EF90DF90CF900895FC01428353836483A5
:1002F000758386819781A085B185480F591F6A1F34
:100300007B1F42875387648775870895FC01A08906
:10031000B1898C91A689B78982FD0FC09C91818D8E
:100320008F5F8F73228D821749F0218DDF01A20F1D
:10033000B11D5D969C93818F08958C9108950895C9
:1003400080E090E00895FC01538D448D252F30E02E
:10035000842F90E0821B930B541710F0CF960895D2
:1003600001970895FC01918D828D981761F0828D1F
:10037000DF01A80FB11D5D968C91928D9F5F9F73D9
:10038000928F90E008958FEF9FEF0895FC01918D7B
:10039000828D981731F0828DE80FF11D858D90E0E8
:1003A00008958FEF9FEF0895FC01918D228D892F85
:1003B00090E0805C9F4F821B91098F73992708956D
:1003C00089E393E0F1DF21E0892B09F420E0822F1B
:1003D00008958CE992E0E8DF21E0892B09F420E020
:1003E000822F0895FC01848DDF01A80FB11DA35A4F
:1003F000BF4F2C91848D90E001968F739927848F45
:10040000A689B7892C93A089B1898C9180648C933B
:10041000938D848D981306C00288F389E02D808126
:100420008F7D80830895EF92FF920F931F93CF9358
:10043000DF93EC0181E0888F9B8D8C8D981305C034
:10044000E889F989808185FD23C0F62E0B8D10E0A7
:100450000F5F1F4F0F731127E02E8C8DE8120BC01A
:100460000FB607FCFACFE889F989808185FFF5CFBF
:10047000CE01B8DFF2CF8B8DFE01E80FF11DE35AFC
:10048000FF4FF0820B8FEA89FB898081806207C071
:10049000EE89FF896083E889F9898081806480839F
:1004A00081E090E0DF91CF911F910F91FF90EF904D
:1004B0000895CF93DF93EC01888D8823C1F0EA89FA
:1004C000FB89808185FD05C0A889B9898C9186FD4D
:1004D0000EC00FB607FCF5CF808185FFF2CFA8894B
:1004E000B9898C9185FFEDCFCE017CDFE8CFDF911C
:1004F000CF91089580E090E0892B19F06ADF811197
:1005000020C080E090E0892B19F05ADF81111CC0D7
:1005100080E090E0892B41F080E090E0892B21F091
:100520000E940000811113C080E090E0892BA1F0AF
:1005300080E090E0892B81F00E94000081110AC0C8
:1005400008950E940000DDCF0E940000E1CF0E94CC
:100550000000EACF0C940000089590E0FC01319770
:10056000E231F10508F04EC08827EE58FF4F8F4F5B
:100570000C945C0F809180008F7703C08091800085
:100580008F7D80938000089580918000877FF9CFD0
:1005900084B58F7702C084B58F7D84BD0895809126
:1005A000B0008F7703C08091B0008F7D8093B00042
:1005B0000895809190008F7707C0809190008F7D83
:1005C00003C080919000877F809390000895809170
:1005D000A0008F7707C08091A0008F7D03C080911D
:1005E000A000877F8093A0000895809120018F77DD
:1005F00007C0809120018F7D03C080912001877FFB
:100600008093200108951F93CF93DF93282F30E02C
:10061000F901E45CFE4F8491F901EE57FE4FD4914D
:10062000F901EE51FE4FC491CC23C1F0162F811178
:1006300094DFEC2FF0E0EE0FFF1FE853FE4FA59183
:10064000B4918FB7F894111105C09C91ED2FE095EE
:10065000E92302C0EC91ED2BEC938FBFDF91CF919A
:100660001F910895863308F0865390917B00282FC0
:100670002870977F922B90937B0087708064809383
:100680007C0080917A00806480937A0080917A0067
:1006900086FDFCCF809178002091790090E0922B2C
:1006A00008952FB7F8946091910270919202809111
:1006B0009302909194022FBF08950F931F93CF93AD
:1006C000DF93EC01EE85FF85309709F01995E9DF9E
:1006D0006E837F83888799870A811B812C813D8166
:1006E000DC01CB01800F911FA21FB31F8A879B875C
:1006F000AC87BD87DF91CF911F910F9108950F9324
:100700001F93FC010285138524853585401B510B01
:10071000620B730B77FD02C0808901C080E01F91DE
:100720000F9108958091EA039DDF9093EC038093ED
:10073000EB038C3B9240DCF461E08DE064DF809160
:10074000ED0391E0980F9093ED032091EB0330912E
:10075000EC03203131055CF090917804923018F46C
:100760009F5F909378048E508093ED03089560E02E
:100770008DE049CF0F931F93CF93DF93EC01E88176
:10078000F981028113818DDFAB01BC01CE01F8013B
:10079000DF91CF911F910F9119948EEF93E097C342
:1007A00084EF93E094C3FC011182108213821282C1
:1007B000158214826115710549F0FB01019000203A
:1007C000E9F73197AF01461B570BF1C608951F9209
:1007D0000F920FB60F9211240BB60F922F933F93E7
:1007E0004F935F936F937F938F939F93AF93BF9339
:1007F000EF93FF938091980290919902A0919A02B1
:10080000B0919B02892B8A2B8B2B59F180919502F9
:10081000E0919602F09197029081892780838091E0
:10082000980290919902A0919A02B0919B02181699
:1008300019061A061B060CF055C08091980290917B
:100840009902A0919A02B0919B020197A109B10966
:100850008093980290939902A0939A02B0939B027E
:1008600041C080910002E8E2F2E0E4919FEF9093B2
:100870000002E230C9F050F4EE2399F0E13081F546
:1008800090916F009D7F90936F002AC0E43019F122
:10089000E0F0E53029F5909173009D7F909373000F
:1008A0001FC010926E001CC0909170009D7F9093AD
:1008B000700091E09093B0009091B100987F9460A7
:1008C0009093B1001092B3000BC0909171009D7F86
:1008D0009093710005C0909172009D7F909372007B
:1008E00060E091DEFF91EF91BF91AF919F918F9169
:1008F0007F916F915F914F913F912F910F900BBE20
:100900000F900FBE0F901F9018951F920F920FB669
:100910000F9211240BB60F922F933F934F935F9337
:100920006F937F938F939F93AF93BF93EF93FF93B7
:1009300089E393E057DDFF91EF91BF91AF919F91D4
:100940008F917F916F915F914F913F912F910F9078
:100950000BBE0F900FBE0F901F9018951F920F9215
:100960000FB60F9211240BB60F922F933F934F9314
:100970005F936F937F938F939F93AF93BF93EF9307
:10098000FF9389E393E0C2DCFF91EF91BF91AF91B8
:100990009F918F917F916F915F914F913F912F9197
:1009A0000F900BBE0F900FBE0F901F9018951F92C7
:1009B0000F920FB60F9211240BB60F922F933F9305
:1009C0004F935F936F937F938F939F93AF93BF9357
:1009D000EF93FF938CE992E005DDFF91EF91BF91DA
:1009E000AF919F918F917F916F915F914F913F91C7
:1009F0002F910F900BBE0F900FBE0F901F90189568
:100A00001F920F920FB60F9211240BB60F922F93D5
:100A10003F934F935F936F937F938F939F93AF9386
:100A2000BF93EF93FF938CE992E070DCFF91EF911D
:100A3000BF91AF919F918F917F916F915F914F91F6
:100A40003F912F910F900BBE0F900FBE0F901F90F4
:100A50001895CF93DF93282F30E0F901E45CFE4F27
:100A60008491F901EE57FE4FD491F901EE51FE4FFA
:100A7000C491CC2389F0811170DDEC2FF0E0EE0FF2
:100A8000FF1FEE5DFE4FA591B491EC91ED2381E047
:100A900090E021F480E002C080E090E0DF91CF910F
:100AA0000895CF93DF9390E0FC01EE57FE4F249121
:100AB000FC01EE51FE4F8491882361F190E0880F94
:100AC000991FFC01E85FFE4FC591D491FC01E853EA
:100AD000FE4FA591B491611109C09FB7F894888128
:100AE000209582238883EC912E230BC0623061F421
:100AF0009FB7F8943881822F809583238883EC9167
:100B00002E2B2C939FBF06C08FB7F894E8812E2B15
:100B100028838FBFDF91CF9108951F920F920FB658
:100B20000F9211242F933F938F939F93AF93BF9373
:100B30008091910290919202A0919302B0919402BF
:100B40003091900223E0230F2D3720F40196A11D50
:100B5000B11D05C026E8230F0296A11DB11D2093EB
:100B600090028093910290939202A0939302B0938B
:100B7000940280918C0290918D02A0918E02B0918E
:100B80008F020196A11DB11D80938C0290938D025E
:100B9000A0938E02B0938F02BF91AF919F918F91DE
:100BA0003F912F910F900FBE0F901F9018956115D8
:100BB000710579F0FB0101900020E9F73197AF0151
:100BC000461B570BDC01ED91FC910280F381E02D77
:100BD000199480E090E008956BE272E0E8CFE7CFEF
:100BE000CF93DF93EC016EE272E08CE992E0F7DFE5
:100BF000CE01CDD160E08E81DF91CF9152CF809137
:100C0000D60330DD9093D9038093D803833C914081
:100C1000FCF08091D70391E0980F9093D703933322
:100C2000B8F090917804923018F49F5F9093780414
:100C300081538093D7038AED93E041D169E372E059
:100C40008CE992E0CCDF8091D8039091D90369C1FF
:100C500008958091E003FDDE9093E3038093E20327
:100C6000892B01F58091E1038F5F8093E10383304D
:100C7000C8F080917804823018F48F5F80937804F4
:100C800084EE93E01CD169E372E08CE992E0A7DF87
:100C90008091E2039091E30344D18091E10381507C
:100CA0008093E10308950F931F93CF93DF9300D0B8
:100CB0001F92CDB7DEB78C0181E192E0F8019183FC
:100CC000808381E0808B77876687128613861486FF
:100CD000158629833A834B835C83E3DCF8016683C2
:100CE000778380879187128B018B29813A814B8191
:100CF0005C812283338344835583DC01CB01820FE3
:100D0000931FA41FB51F82879387A487B5870F9071
:100D10000F900F900F90DF91CF911F910F91089539
:100D2000CF92DF92EF92FF920F931F93CF93DF93B7
:100D30001F92CDB7DEB76C017B018C010C5F1F4F9A
:100D40006DE272E0C80149832EDDB701C80157D4B6
:100D50004981F60140830F90DF91CF911F910F9150
:100D6000FF90EF90DF90CF900895CF92DF92EF92B7
:100D7000FF920F931F93CF93DF931F92CDB7DEB7F0
:100D80006C017B018C010C5F1F4F6DE272E0C801AA
:100D9000498309DDB701C80132D44981F601408396
:100DA0000F90DF91CF911F910F91FF90EF90DF9007
:100DB000CF900895EF92FF920F931F93CF93DF93FD
:100DC0001F92CDB7DEB77C018B016DE272E04983E3
:100DD000EADCB801C70113D44981F70146830F90BB
:100DE000DF91CF911F910F91FF90EF900895CF92D7
:100DF000DF92EF92FF920F931F93CF93DF931F9297
:100E0000CDB7DEB76C017B018C010C5F1F4F6DE22B
:100E100072E0C8014983C7DCB701C801F0D349813A
:100E2000F60140830F90DF91CF911F910F91FF90BA
:100E3000EF90DF90CF9008958F929F92AF92BF92E4
:100E40000F931F93CF93DF93CDB7DEB7A1970FB664
:100E5000F894DEBF0FBECDBF19A2423008F44AE0BD
:100E60008E010F5D1F4F842E912CA12CB12CA5015A
:100E70009401E4D7E62FB901CA0101501109EA3003
:100E800014F4E05D01C0E95CD801EC93232B242B22
:100E9000252B69F7B8018CE992E089DEA1960FB69F
:100EA000F894DEBF0FBECDBFDF91CF911F910F91A0
:100EB000BF90AF909F908F9008950E947511FC0194
:100EC00044815581608171818CE992E0E2C9CF93C0
:100ED000DF93EC018E81BDDD8F838130F9F489854C
:100EE0008F5F89878330D0F080917804823018F446
:100EF0008F5F80937804CE01E2DF69E372E08CE9D2
:100F000092E06DDE6F8170E080E090E04AE094DF77
:100F10008CE992E061DE898581508987DF91CF91EC
:100F20000895CF92DF92EF92FF92CF93DF936C01FF
:100F3000990FEE08FF08F7FE19C0E0919C02F091AE
:100F40009D020190F081E02D6DE28CE992E019950F
:100F5000EC0166277727CB016C197D098E099F0963
:100F60004AE06ADF7C01EC0EFD1E05C04AE0C701C5
:100F7000B60162DF7C018CE992E02EDE8E0D9F1DB2
:100F8000DF91CF91FF90EF90DF90CF900895CF93B6
:100F9000DF9395DFEC018CE992E01EDE8C0F9D1F44
:100FA000DF91CF9108958F929F92AF92BF92CF928F
:100FB000DF92EF92FF92CF9390910002981721F069
:100FC0009F3F09F0C4C204C0E8E2F2E0C491FEC051
:100FD00080930002E8E2F2E0C491CF3F09F4B7C287
:100FE000C23009F47EC06CF5CC2309F459C0C1307D
:100FF00009F0ECC010928000109281009091810065
:10100000986090938100909181009160909381000D
:10101000282F30E0F901EE51FE4FE491F0E0EE0FA1
:10102000FF1FE853FE4F4591549150938404409321
:101030008304F901EE57FE4FE491E0938204C1E08E
:10104000C7C0C43009F49BC00CF472C0C53009F0AD
:10105000BDC0109220011092210190912101986051
:101060009093210190912101916090932101282F6B
:1010700030E0F901EE51FE4FE491F0E0EE0FFF1F7A
:10108000E853FE4F4591549150937B0440937A046A
:10109000F901EE57FE4FE491E0937904C5E098C062
:1010A00014BC15BC94B5926094BD95B5916095BD86
:1010B000282F30E0F901EE51FE4FE491F0E0EE0F01
:1010C000FF1FE853FE4F459154915093870440937E
:1010D0008604F901EE57FE4FE491E0938504C0E0E9
:1010E00077C01092B0001092B1009091B000926061
:1010F0009093B0009091B10091609093B100282F2F
:1011000030E0F901EE51FE4FE491F0E0EE0FFF1FE9
:10111000E853FE4F459154915093970240939602A5
:10112000F901EE57FE4FE491E0939502C2E050C002
:10113000109290001092910090919100986090937D
:10114000910090919100916090939100282F30E050
:10115000F901EE51FE4FE491F0E0EE0FFF1FE8536E
:10116000FE4F459154915093810440938004F901BE
:10117000EE57FE4FE491E0937F04C3E029C0109244
:10118000A0001092A1009091A10098609093A100FE
:101190009091A10091609093A100282F30E0F90177
:1011A000EE51FE4FE491F0E0EE0FFF1FE853FE4FCB
:1011B0004591549150937E0440937D04F901EE577C
:1011C000FE4FE491E0937C04C4E002C0C7FDBFC1C0
:1011D0006B0161E066DCE12CF12C8C2F8D7F09F036
:1011E0009AC060E072E18AE790E0A701960148D6D4
:1011F00049015A01DA01C9010197A109B1098F3FDB
:101200009105A105B10509F008F43FC060E472E45E
:101210008FE090E0A701960133D6DA01C90101976A
:10122000A109B109C230D9F48F3F9105A105B105DB
:1012300009F008F48AC160E970ED83E090E0A7014D
:1012400096011ED6DA01C9010197A109B1098F3FA4
:101250009105A105B10509F080F523E055C08F3F48
:101260009105A105B10599F090F068E478EE81E070
:1012700090E0A701960104D6DA01C9010197A109FE
:10128000B109CC2309F417C158C121E001C022E003
:10129000CC2371F039C0D501C4012AE0B595A795DA
:1012A000979587952A95D1F70197A109B10925E06E
:1012B00035B5387F232B25BD83C068E478EE81E007
:1012C00090E0A7019601DCD5DA01C9010197A109D7
:1012D000B1098F3F9105A105B10509F008F4E9C0F6
:1012E00064E274EF80E090E0A7019601C9D5DA01CD
:1012F000C9010197A109B1098F3F9105A105B10568
:1013000011F008F0F5C025E03091B100387F232BB3
:101310002093B10044C060E072E18AE790E0A70149
:101320009601AED5DA01C9010197A109B10900976B
:1013300021E0A207B10570F068E478EE81E090E06A
:10134000A70196019DD5DA01C9010197A109B1094B
:1013500023E001C021E0C13039F430918100387FB1
:10136000232B209381003EC0C33039F4309191008B
:10137000387F232B209391005DC0C43039F4309125
:10138000A100387F232B2093A10069C0C53039F418
:1013900030912101387F232B2093210175C0C23069
:1013A000B1F134F4CC2361F0C13009F0D0C01AC0DF
:1013B000C43009F454C0F4F1C53009F465C0C7C0A5
:1013C00087BD8FEF9FEFDC01809398049093990481
:1013D000A0939A04B0939B0480916E0082608093E6
:1013E0006E00B5C090938900809388008FEF9FEFC7
:1013F000DC018093940490939504A0939604B09399
:10140000970480916F00826080936F00A0C08093EA
:10141000B3008FEF9FEFDC018093980290939902C5
:10142000A0939A02B0939B02809170008260809397
:1014300070008DC090939900809398008FEF9FEF7C
:10144000DC018093900490939104A0939204B09354
:1014500093048091710082608093710078C09093B2
:10146000A9008093A8008FEF9FEFDC0180938C048C
:1014700090938D04A0938E04B0938F04809172009A
:1014800082608093720063C0909329018093280149
:101490008FEF9FEFDC018093880490938904A093E1
:1014A0008A04B0938B0480917300826080937300F0
:1014B0004EC024E029CF8F3F9105A105B105B1F0C1
:1014C000A8F062E17AE780E090E0A7019601D8D425
:1014D000DA01C9010197A109B1098F3F9105A10561
:1014E000B10511F008F0D7CE24E0E2CE23E0E0CE43
:1014F00062E17AE780E090E0A7019601C1D4DA01C9
:10150000C9010197A109B1098F3F9105A105B10555
:1015100091F088F0D501C4013AE0B595A79597956B
:1015200087953A95D1F70197A109B109CC2309F420
:10153000BECE27E0E9CE26E0ABCE8F3F9105A105D8
:10154000B10509F0A8F624E0A3CE22E0DDCECF91CC
:10155000FF90EF90DF90CF90BF90AF909F908F90D3
:1015600008950F931F93CF93DF93EC0188819981A6
:10157000009729F02A813B812617370780F48B01D9
:101580006F5F7F4FCED5009761F0998388831B836F
:101590000A832C813D81232B11F4FC01108281E010
:1015A00001C080E0DF91CF911F910F910895EF92DC
:1015B000FF920F931F93CF93DF93EC017B018A017E
:1015C000BA01CFDF2881398181110CC02115310585
:1015D00011F0C9010ED5198218821D821C821B824E
:1015E0001A8205C01D830C83B701C9018BD6CE01B9
:1015F000DF91CF911F910F91FF90EF900895CF93BE
:10160000DF93EC01FB0186179707A1F060817181E0
:101610006115710521F044815581C9DF0BC08881B6
:101620009981009709F0E5D4198218821D821C82E5
:101630001B821A82CE01DF91CF910895FC01808137
:101640009181D7C4CF93DF93CDB7DEB728970FB67C
:10165000F894DEBF0FBECDBF789484B5826084BDA0
:1016600084B5816084BD85B5826085BD85B58160A6
:1016700085BD80916E00816080936E001092810024
:1016800080918100826080938100809181008160DF
:1016900080938100809180008160809380008091A0
:1016A000B10084608093B1008091B000816080932C
:1016B000B0008091910082608093910080919100B0
:1016C0008160809391008091900081608093900070
:1016D0008091A10082608093A1008091A10081602F
:1016E0008093A1008091A00081608093A0008091F0
:1016F000210182608093210180912101816080938A
:1017000021018091200181608093200180917A00E5
:10171000846080937A0080917A00826080937A005E
:1017200080917A00816080937A0080917A0080684D
:1017300080937A001092C100E091AC02F091AD026A
:1017400022E02083E091A802F091A9021082E091AA
:10175000AA02F091AB028FEC80831092B402E09168
:10176000B002F091B10296E09083E091AE02F09168
:10177000AF02808180618083E091AE02F091AF0280
:10178000808188608083E091AE02F091AF02808119
:1017900080688083E091AE02F091AF0280818F7DFE
:1017A0008083E0914903F0914A032083E09145034F
:1017B000F091460383E08083E0914703F091480372
:1017C00080E4808310925103E0914D03F0914E0329
:1017D0009083E0914B03F0914C0380818061808382
:1017E000E0914B03F0914C03808188608083E0910D
:1017F0004B03F0914C03808180688083E0914B0320
:10180000F0914C0380818F7D80838EEF93E0E8D947
:1018100011E0109366048DEC93E09093650480933F
:10182000640488EEC82E83E0D82EE12CF12CC092FF
:101830005804D0925904E0925A04F0925B048091CB
:101840005C0490915D04A0915E04B0915F048851A6
:101850009C4FAF4FBF4F8093600490936104A0935F
:101860006204B093630484EF93E0BAD910935304F5
:1018700080ED93E09093520480935104C09245040C
:10188000D0924604E0924704F092480480914904C3
:1018900090914A04A0914B04B0914C0488519C4F04
:1018A000AF4FBF4F80934D0490934E04A0934F04CD
:1018B000B09350046EE272E08CE992E090D98EEE23
:1018C00093E065DB60E08091EA03EBD8109340047D
:1018D00082E993E090933F0480933E041092320497
:1018E000109233041092340410923504809136041F
:1018F00090913704A0913804B091390480933A0450
:1019000090933B04A0933C04B0933D046EE272E0DC
:101910008CE992E064D984EE93E039DB60E0809159
:10192000E003BFD810932D0489E296E090932C0435
:1019300080932B04C0921F04D0922004E0922104D3
:10194000F09222048091230490912404A091250414
:10195000B091260488519C4FAF4FBF4F809327040E
:1019600090932804A0932904B0932A046EE272E0B5
:101970008CE992E034D98AED93E009DB60E0809154
:10198000D6038FD810931A048FEF95E09093190423
:101990008093180410920C0410920D0410920E04FF
:1019A00010920F048091100490911104A0911204E0
:1019B000B09113048093140490931504A09316041B
:1019C000B09317046DE272E0CE0101960E94D3033A
:1019D0006CE372E089E393E002D989E393E0FCD8F9
:1019E0000E9451036B017C010E945103DC01CB0179
:1019F0008C199D09AE09BF09883E9340A105B10528
:101A000048F589E393E00E94D401892B69F389E3C7
:101A100093E00E94B201182F682F8CE992E00E9497
:101A200013021F8318860D811E810F5F1F4FB8019F
:101A3000CE01019696DD8823B9F229813A818D8104
:101A40009E81BE01695F7F4F820F931F5BD41E830F
:101A50000D83CACF8CE992E0BFD8CE01019697DA08
:101A6000CE010196EBDD6FE372E08CE992E09FD846
:101A70008CE992E0B1D861E08091690412D861E00C
:101A800080916A040ED886E594E00E94BA03882308
:101A900021F086E594E00E945D0383E494E00E94D7
:101AA000BA03882321F083E494E00E945D0380E37D
:101AB00094E00E94BA03882321F080E394E00E941E
:101AC0005D038DE194E00E94BA03882321F08DE14B
:101AD00094E00E945D038AE094E00E94BA038823A8
:101AE00021F08AE094E00E945D03809178048230C6
:101AF00009F048C00E9451030091720410917304D0
:101B00002091740430917504AB01BC01401B510B52
:101B1000620B730B80916F0490917004092E000C7E
:101B2000AA0BBB0B481759076A077B0758F10E949D
:101B300051036093720470937304809374049093C0
:101B4000750480916B0490916C042091760430911F
:101B500077042817390721F480916D0490916E0461
:101B60009093770480937604609176047091770463
:101B70008091690418DA60917604709177048091FD
:101B80006A0411DA0E947A027ECF8AED93E056DD74
:101B900084EE93E053DD8EEE93E050DD84EF93E02E
:101BA0004DDD8EEF93E04ACDCF93DF9300D000D090
:101BB000CDB7DEB710923C0310923B0348EE53E0E2
:101BC00060E070E040933D0350933E0360933F0319
:101BD000709340038BE192E090933A038093390332
:101BE0002DEC30E030934603209345032CEC30E09D
:101BF000309348032093470328EC30E030934A03A6
:101C00002093490329EC30E030934C0320934B039D
:101C10002AEC30E030934E0320934D032EEC30E05D
:101C20003093500320934F031092520310925303AA
:101C3000109254031092550310929F0210929E022C
:101C40004093A0025093A1026093A2027093A3025A
:101C500090939D0280939C0285EC90E09093A90262
:101C60008093A80284EC90E09093AB028093AA0248
:101C700080EC90E09093AD028093AC0281EC90E018
:101C80009093AF028093AE0282EC90E09093B10209
:101C90008093B00286EC90E09093B3028093B202FE
:101CA0001092B5021092B6021092B7021092B802CA
:101CB00010927104109272041092730410927404C2
:101CC0001092750480910502809369048091060248
:101CD00080936A04809101029091020290936C04B7
:101CE00080936B04209103023091040230936E04C0
:101CF00020936D0428EE33E03093700420936F043A
:101D0000909377048093760420E030E0A90160E0AE
:101D100070E086E594E00E94530620E030E0A901DF
:101D200060E070E083E494E00E94530620E030E03D
:101D3000A90160E070E080E394E00E94530620E097
:101D400030E0A90160E070E08DE194E00E9453066C
:101D500020E030E0A90160E070E08AE094E00E94B9
:101D6000530689E393E00E94D401892B51F06FE47C
:101D700072E08CE992E00E94D7058CE992E00E9423
:101D8000EC0560E672E0CE0101960E94D3034CE0C0
:101D9000BE016F5F7F4F8EEF93E00CD8CE010196AE
:101DA0004DDC68E672E0CE0101960E94D3034BE061
:101DB000BE016F5F7F4F84EF93E00E94DA06CE0191
:101DC00001963CDC60E772E0CE0101960E94D303ED
:101DD00046E3BE016F5F7F4F8AEE93E00E9490065C
:101DE000CE0101962BDC66E772E0CE0101960E94DF
:101DF000D30347E0BE016F5F7F4F80EE93E00E9408
:101E0000B506CE0101961ADC60E872E0CE010196BB
:101E10000E94D30347E3BE016F5F7F4F86ED93E0DF
:101E20000E94F706CE01019609DC26960FB6F894BB
:101E3000DEBF0FBECDBFDF91CF910895A1E21A2E74
:101E4000AA1BBB1BFD010DC0AA1FBB1FEE1FFF1F5E
:101E5000A217B307E407F50720F0A21BB30BE40BAE
:101E6000F50B661F771F881F991F1A9469F76095F5
:101E70007095809590959B01AC01BD01CF010895AF
:101E8000052E97FB16F400940FD057FD05D0D6DF32
:101E900007FC02D046F408C0509540953095219536
:101EA0003F4F4F4F5F4F0895909580957095619586
:101EB0007F4F8F4F9F4F0895EE0FFF1F881F8BBFDF
:101EC0000790F691E02D1994CF93DF93823091051E
:101ED00010F482E090E0E0919E04F0919F0420E0F5
:101EE00030E0C0E0D0E0309711F1408151814817D7
:101EF0005907C0F04817590761F4828193812097F0
:101F000019F09B838A832BC090939F0480939E0437
:101F100026C02115310519F04217530718F49A010C
:101F2000BE01DF01EF010280F381E02DDCCF21153E
:101F3000310509F1281B390B2430310590F4129634
:101F40008D919C9113976115710521F0FB0193838D
:101F5000828304C090939F0480939E04FD01329677
:101F600044C0FD01E20FF31F819391932250310988
:101F70002D933C933AC020919C0430919D04232BD7
:101F800041F42091090230910A0230939D0420937C
:101F90009C0420910702309108022115310541F47B
:101FA0002DB73EB740910B0250910C02241B350B0C
:101FB000E0919C04F0919D04E217F307A0F42E1B1E
:101FC0003F0B2817390778F0AC014E5F5F4F24179D
:101FD000350748F04E0F5F1F50939D0440939C04BB
:101FE0008193919302C0E0E0F0E0CF01DF91CF91C7
:101FF00008950F931F93CF93DF93009709F48CC03C
:10200000FC0132971382128200919E0410919F046A
:102010000115110581F420813181820F931F2091D8
:102020009C0430919D042817390779F5F0939D049D
:10203000E0939C0471C0D80140E050E0AE17BF07A8
:1020400050F412962D913C911397AD012115310555
:1020500009F1D901F3CF9D01DA0133832283608135
:102060007181860F971F8217930769F4EC0128810D
:102070003981260F371F2E5F3F4F318320838A819E
:102080009B8193838283452B29F4F0939F04E093F3
:102090009E0442C01396FC93EE931297ED01499172
:1020A00059919E01240F351FE217F30771F48081C7
:1020B0009181840F951F029611969C938E93828135
:1020C000938113969C938E931297E0E0F0E0D801F1
:1020D00012968D919C911397009719F0F8018C013D
:1020E000F6CF8D919C9198012E5F3F4F820F931FE9
:1020F00020919C0430919D042817390769F430978A
:1021000029F410929F0410929E0402C0138212823E
:1021100010939D0400939C04DF91CF911F910F9128
:1021200008956F927F928F929F92AF92BF92CF92BB
:10213000DF92EF92FF920F931F93CF93DF93EC0107
:10214000009781F4CB01DF91CF911F910F91FF9008
:10215000EF90DF90CF90BF90AF909F908F907F9047
:102160006F90B2CEFC01E60FF71F9C01225031099F
:10217000E217F30708F4A8C0D9010D911C9111973B
:1021800006171707A8F00530110508F49BC0C80111
:1021900004978617970708F495C002501109061B8B
:1021A000170B019311936D937C93CF0122DF8AC0AB
:1021B0005B01A01AB10A4C01800E911EA0919E04F1
:1021C000B0919F0440E050E0E12CF12C109709F40D
:1021D0004AC0A815B905D1F56D907C90119763019F
:1021E00082E0C80ED11CCA14DB0480F1A3014A1995
:1021F0005B096A0182E0C80ED11C1296BC9012974E
:102200001396AC91B5E0CB16D10440F0B282A38313
:1022100051834083D9016D937C930AC00E5F1F4F99
:10222000C301800F911FF90191838083EB2DFA2F59
:10223000E114F10431F0D7011396FC93EE93129759
:1022400041C0F0939F04E0939E043CC08D919C910B
:1022500011974817590708F4AC017D0112960D90AB
:10226000BC91A02DB3CF80919C0490919D048815C2
:102270009905E1F446175707C8F480910702909139
:102280000802009741F48DB79EB740910B02509120
:102290000C02841B950BE817F907B0F4F0939D042A
:1022A000E0939C04F901718360830CC0CB010CDEC8
:1022B0007C01009749F0A801BE011BD0CE0199DE38
:1022C000C70104C0CE0102C080E090E0DF91CF9151
:1022D0001F910F91FF90EF90DF90CF90BF90AF9044
:1022E0009F908F907F906F90089581E090E0F89498
:1022F00010C0FB01DC0102C001900D924150504022
:10230000D8F70895FB01DC0101900D920020E1F760
:10231000089511E0C6E1D1E000E005C0802FFE0184
:10232000CBDD2196011DC731D10780E00807B1F749
:04233000F894FFCF4F
:10233400FFBC02840304030000A00480000000002A
:102344000074017F035D030000000013024901A330
:10235400015902D401B201C601E8030D0A00436F1A
:102364006E66696775726520002020004154004341
:102374006F6E666967757265205069657A6F00478C
:10238400534D20696E6974207375636365737300BC
:102394004D6F74696F6E31004D6F74696F6E3200EA
:1023A400536F756E640050726F78696D697479004B
:0C23B40048616C6C53656E736F72000022
:00000001FF
