:1000000016C1000045C1000043C1000041C100000D
:100010003FC100003DC100003BC1000039C10000EC
:1000200037C1000035C1000033C1000031C10000FC
:100030002FC10000CCC300002BC1000029C100006B
:1000400027C1000025C1000023C1000021C100001C
:100050001FC100001DC100001BC100005EC50000E3
:1000600017C10000CDC40000A2C4000011C10000EF
:100070000FC100000DC100000BC1000009C100004C
:1000800007C1000005C1000003C1000001C100005C
:1000900065C400003AC40000FBC00000F9C00000C5
:1000A000F7C00000F5C00000F3C00000F1C0000080
:1000B000EFC00000EDC00000EBC00000E9C0000090
:1000C000E7C00000E5C00000E3C00000E1C00000A0
:1000D000DFC00000DDC00000DBC00000D9C00000B0
:1000E000D7C00000C802CB02BA02BE02C40202039B
:1000F000CF02D302D902DD02E102E702EB02EF02F6
:100100000203F502F902FD0200002100240027008D
:100110002A002D0030003300010100000401070116
:100120000A01000020002300260029002C002F00D7
:1001300032000001000003010601090100000A0B62
:1001400002090C0D0E080703040100000000000066
:10015000000000000000000000000000000000009F
:10016000000000000000000012111000000000005C
:10017000000000000000000000000000000000007F
:1001800000000102102020080810204010204080AC
:10019000020102010804020101020408102040804B
:1001A00080402010080402018004020180402010D9
:1001B0000804020108040201010204081020408022
:1001C00001020408102040800000220025002800C1
:1001D0002B002E003100340002010000050108014F
:1001E0000B010505050507050808080802020202BB
:1001F0000A0A0808040404040101010101010101C3
:100200000303030303030303040707070C0C0C0C8D
:100210000C0C0C0C02020202060606060606060676
:100220000B0B0B0B0B0B0B0B0200D40DC50D11248C
:100230001FBECFEFD1E2DEBFCDBF00E00CBF24E098
:10024000ACE8B2E001C01D92A03AB207E1F712E0BB
:10025000A0E0B2E0E4E3F3E200E00BBF02C00790ED
:100260000D92AC38B107D9F711E0C6E1D1E000E05A
:1002700006C021970109802FFE010E945C0FC53145
:10028000D10780E00807A9F70E94220B0C9489117E
:10029000B7CECF92DF92EF92FF920F931F93CF933F
:1002A000DF936C017A018B01C0E0D0E0CE15DF0551
:1002B00089F0D8016D918D01D601ED91FC910190ED
:1002C000F081E02DC6011995892B11F47E0102C041
:1002D0002196ECCFC701DF91CF911F910F91FF9035
:1002E000EF90DF90CF900895FC01428353836483A5
:1002F000758386819781A085B185480F591F6A1F34
:100300007B1F42875387648775870895FC01A08906
:10031000B1898C91A689B78982FD0FC09C91818D8E
:100320008F5F8F73228D821749F0218DDF01A20F1D
:10033000B11D5D969C93818F08958C9108950895C9
:1003400080E090E00895FC01538D448D252F30E02E
:10035000842F90E0821B930B541710F0CF960895D2
:1003600001970895FC01918D828D981761F0828D1F
:10037000DF01A80FB11D5D968C91928D9F5F9F73D9
:10038000928F90E008958FEF9FEF0895FC01918D7B
:10039000828D981731F0828DE80FF11D858D90E0E8
:1003A00008958FEF9FEF0895FC01918D228D892F85
:1003B00090E0805C9F4F821B91098F73992708956D
:1003C00089E393E0F1DF21E0892B09F420E0822F1B
:1003D00008958CE992E0E8DF21E0892B09F420E020
:1003E000822F0895FC01848DDF01A80FB11DA35A4F
:1003F000BF4F2C91848D90E001968F739927848F45
:10040000A689B7892C93A089B1898C9180648C933B
:10041000938D848D981306C00288F389E02D808126
:100420008F7D80830895EF92FF920F931F93CF9358
:10043000DF93EC0181E0888F9B8D8C8D981305C034
:10044000E889F989808185FD23C0F62E0B8D10E0A7
:100450000F5F1F4F0F731127E02E8C8DE8120BC01A
:100460000FB607FCFACFE889F989808185FFF5CFBF
:10047000CE01B8DFF2CF8B8DFE01E80FF11DE35AFC
:10048000FF4FF0820B8FEA89FB898081806207C071
:10049000EE89FF896083E889F9898081806480839F
:1004A00081E090E0DF91CF911F910F91FF90EF904D
:1004B0000895CF93DF93EC01888D8823C1F0EA89FA
:1004C000FB89808185FD05C0A889B9898C9186FD4D
:1004D0000EC00FB607FCF5CF808185FFF2CFA8894B
:1004E000B9898C9185FFEDCFCE017CDFE8CFDF911C
:1004F000CF91089580E090E0892B19F06ADF811197
:1005000020C080E090E0892B19F05ADF81111CC0D7
:1005100080E090E0892B41F080E090E0892B21F091
:100520000E940000811113C080E090E0892BA1F0AF
:1005300080E090E0892B81F00E94000081110AC0C8
:1005400008950E940000DDCF0E940000E1CF0E94CC
:100550000000EACF0C940000089590E0FC01319770
:10056000E231F10508F04EC08827EE58FF4F8F4F5B
:100570000C945C0F809180008F7703C08091800085
:100580008F7D80938000089580918000877FF9CFD0
:1005900084B58F7702C084B58F7D84BD0895809126
:1005A000B0008F7703C08091B0008F7D8093B00042
:1005B0000895809190008F7707C0809190008F7D83
:1005C00003C080919000877F809390000895809170
:1005D000A0008F7707C08091A0008F7D03C080911D
:1005E000A000877F8093A0000895809120018F77DD
:1005F00007C0809120018F7D03C080912001877FFB
:100600008093200108951F93CF93DF93282F30E02C
:10061000F901E45CFE4F8491F901EE57FE4FD4914D
:10062000F901EE51FE4FC491CC23C1F0162F811178
:1006300094DFEC2FF0E0EE0FFF1FE853FE4FA59183
:10064000B4918FB7F894111105C09C91ED2FE095EE
:10065000E92302C0EC91ED2BEC938FBFDF91CF919A
:100660001F910895863308F0865390917B00282FC0
:100670002870977F922B90937B0087708064809383
:100680007C0080917A00806480937A0080917A0067
:1006900086FDFCCF809178002091790090E0922B2C
:1006A00008952FB7F8946091910270919202809111
:1006B0009302909194022FBF08950F931F93CF93AD
:1006C000DF93EC01EE85FF85309709F01995E9DF9E
:1006D0006E837F83888799870A811B812C813D8166
:1006E000DC01CB01800F911FA21FB31F8A879B875C
:1006F000AC87BD87DF91CF911F910F9108950F9324
:100700001F93FC010285138524853585401B510B01
:10071000620B730B77FD02C0808901C080E01F91DE
:100720000F9108958091EA039DDF9093EC038093ED
:10073000EB038C3B9240DCF461E08DE064DF809160
:10074000ED0391E0980F9093ED032091EB0330912E
:10075000EC03203131055CF090917804923018F46C
:100760009F5F909378048E508093ED03089560E02E
:100770008DE049CF0F931F93CF93DF93EC01E88176
:10078000F981028113818DDFAB01BC01CE01F8013B
:10079000DF91CF911F910F9119948EEF93E097C342
:1007A00084EF93E094C3FC011182108213821282C1
:1007B000158214826115710549F0FB01019000203A
:1007C000E9F73197AF01461B570BF1C608951F9209
:1007D0000F920FB60F9211240BB60F922F933F93E7
:1007E0004F935F936F937F938F939F93AF93BF9339
:1007F000EF93FF938091980290919902A0919A02B1
:10080000B0919B02892B8A2B8B2B59F180919502F9
:10081000E0919602F09197029081892780838091E0
:10082000980290919902A0919A02B0919B02181699
:1008300019061A061B060CF055C08091980290917B
:100840009902A0919A02B0919B020197A109B10966
:100850008093980290939902A0939A02B0939B027E
:1008600041C080910002E8E2F2E0E4919FEF9093B2
:100870000002E230C9F050F4EE2399F0E13081F546
:1008800090916F009D7F90936F002AC0E43019F122
:10089000E0F0E53029F5909173009D7F909373000F
:1008A0001FC010926E001CC0909170009D7F9093AD
:1008B000700091E09093B0009091B100987F9460A7
:1008C0009093B1001092B3000BC0909171009D7F86
:1008D0009093710005C0909172009D7F909372007B
:1008E00060E091DEFF91EF91BF91AF919F918F9169
:1008F0007F916F915F914F913F912F910F900BBE20
:100900000F900FBE0F901F9018951F920F920FB669
:100910000F9211240BB60F922F933F934F935F9337
:100920006F937F938F939F93AF93BF93EF93FF93B7
:1009300089E393E057DDFF91EF91BF91AF919F91D4
:100940008F917F916F915F914F913F912F910F9078
:100950000BBE0F900FBE0F901F9018951F920F9215
:100960000FB60F9211240BB60F922F933F934F9314
:100970005F936F937F938F939F93AF93BF93EF9307
:10098000FF9389E393E0C2DCFF91EF91BF91AF91B8
:100990009F918F917F916F915F914F913F912F9197
:1009A0000F900BBE0F900FBE0F901F9018951F92C7
:1009B0000F920FB60F9211240BB60F922F933F9305
:1009C0004F935F936F937F938F939F93AF93BF9357
:1009D000EF93FF938CE992E005DDFF91EF91BF91DA
:1009E000AF919F918F917F916F915F914F913F91C7
:1009F0002F910F900BBE0F900FBE0F901F90189568
:100A00001F920F920FB60F9211240BB60F922F93D5
:100A10003F934F935F936F937F938F939F93AF9386
:100A2000BF93EF93FF938CE992E070DCFF91EF911D
:100A3000BF91AF919F918F917F916F915F914F91F6
:100A40003F912F910F900BBE0F900FBE0F901F90F4
:100A50001895CF93DF93282F30E0F901E45CFE4F27
:100A60008491F901EE57FE4FD491F901EE51FE4FFA
:100A7000C491CC2389F0811170DDEC2FF0E0EE0FF2
:100A8000FF1FEE5DFE4FA591B491EC91ED2381E047
:100A900090E021F480E002C080E090E0DF91CF910F
:100AA0000895CF93DF9390E0FC01EE57FE4F249121
:100AB000FC01EE51FE4F8491882361F190E0880F94
:100AC000991FFC01E85FFE4FC591D491FC01E853EA
:100AD000FE4FA591B491611109C09FB7F894888128
:100AE000209582238883EC912E230BC0623061F421
:100AF0009FB7F8943881822F809583238883EC9167
:100B00002E2B2C939FBF06C08FB7F894E8812E2B15
:100B100028838FBFDF91CF9108951F920F920FB658
:100B20000F9211242F933F938F939F93AF93BF9373
:100B30008091910290919202A0919302B0919402BF
:100B40003091900223E0230F2D3720F40196A11D50
:100B5000B11D05C026E8230F0296A11DB11D2093EB
:100B600090028093910290939202A0939302B0938B
:100B7000940280918C0290918D02A0918E02B0918E
:100B80008F020196A11DB11D80938C0290938D025E
:100B9000A0938E02B0938F02BF91AF919F918F91DE
:100BA0003F912F910F900FBE0F901F9018956115D8
:100BB000710579F0FB0101900020E9F73197AF0151
:100BC000461B570BDC01ED91FC910280F381E02D77
:100BD000199480E090E008956BE272E0E8CFE7CFEF
:100BE000CF93DF93EC016EE272E08CE992E0F7DFE5
:100BF000CE01CDD160E08E81DF91CF9152CF809137
:100C0000D60330DD9093D9038093D803833C914081
:100C1000FCF08091D70391E0980F9093D703933322
:100C2000B8F090917804923018F49F5F9093780414
:100C300081538093D7038AED93E041D169E372E059
:100C40008CE992E0CCDF8091D8039091D90369C1FF
:100C500008958091E003FDDE9093E3038093E20327
:100C6000892B01F58091E1038F5F8093E10383304D
:100C7000C8F080917804823018F48F5F80937804F4
:100C800084EE93E01CD169E372E08CE992E0A7DF87
:100C90008091E2039091E30344D18091E10381507C
:100CA0008093E10308950F931F93CF93DF9300D0B8
:100CB0001F92CDB7DEB78C0181E192E0F8019183FC
:100CC000808381E0808B77876687128613861486FF
:100CD000158629833A834B835C83E3DCF8016683C2
:100CE000778380879187128B018B29813A814B8191
:100CF0005C812283338344835583DC01CB01820FE3
:100D0000931FA41FB51F82879387A487B5870F9071
:100D10000F900F900F90DF91CF911F910F91089539
:100D2000CF92DF92EF92FF920F931F93CF93DF93B7
:100D30001F92CDB7DEB76C017B018C010C5F1F4F9A
:100D40006DE272E0C80149832EDDB701C80157D4B6
:100D50004981F60140830F90DF91CF911F910F9150
:100D6000FF90EF90DF90CF900895CF92DF92EF92B7
:100D7000FF920F931F93CF93DF931F92CDB7DEB7F0
:100D80006C017B018C010C5F1F4F6DE272E0C801AA
:100D9000498309DDB701C80132D44981F601408396
:100DA0000F90DF91CF911F910F91FF90EF90DF9007
:100DB000CF900895EF92FF920F931F93CF93DF93FD
:100DC0001F92CDB7DEB77C018B016DE272E04983E3
:100DD000EADCB801C70113D44981F70146830F90BB
:100DE000DF91CF911F910F91FF90EF900895CF92D7
:100DF000DF92EF92FF920F931F93CF93DF931F9297
:100E0000CDB7DEB76C017B018C010C5F1F4F6DE22B
:100E100072E0C8014983C7DCB701C801F0D349813A
:100E2000F60140830F90DF91CF911F910F91FF90BA
:100E3000EF90DF90CF9008958F929F92AF92BF92E4
:100E40000F931F93CF93DF93CDB7DEB7A1970FB664
:100E5000F894DEBF0FBECDBF19A2423008F44AE0BD
:100E60008E010F5D1F4F842E912CA12CB12CA5015A
:100E70009401E4D7E62FB901CA0101501109EA3003
:100E800014F4E05D01C0E95CD801EC93232B242B22
:100E9000252B69F7B8018CE992E089DEA1960FB69F
:100EA000F894DEBF0FBECDBFDF91CF911F910F91A0
:100EB000BF90AF909F908F9008950E947511FC0194
:100EC00044815581608171818CE992E0E2C9CF93C0
:100ED000DF93EC018E81BDDD8F838130F9F489854C
:100EE0008F5F89878330D0F080917804823018F446
:100EF0008F5F80937804CE01E2DF69E372E08CE9D2
:100F000092E06DDE6F8170E080E090E04AE094DF77
:100F10008CE992E061DE898581508987DF91CF91EC
:100F20000895CF92DF92EF92FF92CF93DF936C01FF
:100F3000990FEE08FF08F7FE19C0E0919C02F091AE
:100F40009D020190F081E02D6DE28CE992E019950F
:100F5000EC0166277727CB016C197D098E099F0963
:100F60004AE06ADF7C01EC0EFD1E05C04AE0C701C5
:100F7000B60162DF7C018CE992E02EDE8E0D9F1DB2
:100F8000DF91CF91FF90EF90DF90CF900895CF93B6
:100F9000DF9395DFEC018CE992E01EDE8C0F9D1F44
:100FA000DF91CF9108958F929F92AF92BF92CF928F
:100FB000DF92EF92FF92CF9390910002981721F069
:100FC0009F3F09F0C4C204C0E8E2F2E0C491FEC051
:100FD00080930002E8E2F2E0C491CF3F09F4B7C287
:100FE000C23009F47EC06CF5CC2309F459C0C1307D
:100FF00009F0ECC010928000109281009091810065
:10100000986090938100909181009160909381000D
:10101000282F30E0F901EE51FE4FE491F0E0EE0FA1
:10102000FF1FE853FE4F4591549150938404409321
:101030008304F901EE57FE4FE491E0938204C1E08E
:10104000C7C0C43009F49BC00CF472C0C53009F0AD
:10105000BDC0109220011092210190912101986051
:101060009093210190912101916090932101282F6B
:1010700030E0F901EE51FE4FE491F0E0EE0FFF1F7A
:10108000E853FE4F4591549150937B0440937A046A
:10109000F901EE57FE4FE491E0937904C5E098C062
:1010A00014BC15BC94B5926094BD95B5916095BD86
:1010B000282F30E0F901EE51FE4FE491F0E0EE0F01
:1010C000FF1FE853FE4F459154915093870440937E
:1010D0008604F901EE57FE4FE491E0938504C0E0E9
:1010E00077C01092B0001092B1009091B000926061
:1010F0009093B0009091B10091609093B100282F2F
:1011000030E0F901EE51FE4FE491F0E0EE0FFF1FE9
:10111000E853FE4F459154915093970240939602A5
:10112000F901EE57FE4FE491E0939502C2E050C002
:10113000109290001092910090919100986090937D
:10114000910090919100916090939100282F30E050
:10115000F901EE51FE4FE491F0E0EE0FFF1FE8536E
:10116000FE4F459154915093810440938004F901BE
:10117000EE57FE4FE491E0937F04C3E029C0109244
:10118000A0001092A1009091A10098609093A100FE
:101190009091A10091609093A100282F30E0F90177
:1011A000EE51FE4FE491F0E0EE0FFF1FE853FE4FCB
:1011B0004591549150937E0440937D04F901EE577C
:1011C000FE4FE491E0937C04C4E002C0C7FDBFC1C0
:1011D0006B0161E066DCE12CF12C8C2F8D7F09F036
:1011E0009AC060E072E18AE790E0A701960148D6D4
:1011F00049015A01DA01C9010197A109B1098F3FDB
:101200009105A105B10509F008F43FC060E472E45E
:101210008FE090E0A701960133D6DA01C90101976A
:10122000A109B109C230D9F48F3F9105A105B105DB
:1012300009F008F48AC160E970ED83E090E0A7014D
:1012400096011ED6DA01C9010197A109B1098F3FA4
:101250009105A105B10509F080F523E055C08F3F48
:101260009105A105B10599F090F068E478EE81E070
:1012700090E0A701960104D6DA01C9010197A109FE
:10128000B109CC2309F417C158C121E001C022E003
:10129000CC2371F039C0D501C4012AE0B595A795DA
:1012A000979587952A95D1F70197A109B10925E06E
:1012B00035B5387F232B25BD83C068E478EE81E007
:1012C00090E0A7019601DCD5DA01C9010197A109D7
:1012D000B1098F3F9105A105B10509F008F4E9C0F6
:1012E00064E274EF80E090E0A7019601C9D5DA01CD
:1012F000C9010197A109B1098F3F9105A105B10568
:1013000011F008F0F5C025E03091B100387F232BB3
:101310002093B10044C060E072E18AE790E0A70149
:101320009601AED5DA01C9010197A109B10900976B
:1013300021E0A207B10570F068E478EE81E090E06A
:10134000A70196019DD5DA01C9010197A109B1094B
:1013500023E001C021E0C13039F430918100387FB1
:10136000232B209381003EC0C33039F4309191008B
:10137000387F232B209391005DC0C43039F4309125
:10138000A100387F232B2093A10069C0C53039F418
:1013900030912101387F232B2093210175C0C23069
:1013A000B1F134F4CC2361F0C13009F0D0C01AC0DF
:1013B000C43009F454C0F4F1C53009F465C0C7C0A5
:1013C00087BD8FEF9FEFDC01809398049093990481
:1013D000A0939A04B0939B0480916E0082608093E6
:1013E0006E00B5C090938900809388008FEF9FEFC7
:1013F000DC018093940490939504A0939604B09399
:10140000970480916F00826080936F00A0C08093EA
:10141000B3008FEF9FEFDC018093980290939902C5
:10142000A0939A02B0939B02809170008260809397
:1014300070008DC090939900809398008FEF9FEF7C
:10144000DC018093900490939104A0939204B09354
:1014500093048091710082608093710078C09093B2
:10146000A9008093A8008FEF9FEFDC0180938C048C
:1014700090938D04A0938E04B0938F04809172009A
:1014800082608093720063C0909329018093280149
:101490008FEF9FEFDC018093880490938904A093E1
:1014A0008A04B0938B0480917300826080937300F0
:1014B0004EC024E029CF8F3F9105A105B105B1F0C1
:1014C000A8F062E17AE780E090E0A7019601D8D425
:1014D000DA01C9010197A109B1098F3F9105A10561
:1014E000B10511F008F0D7CE24E0E2CE23E0E0CE43
:1014F00062E17AE780E090E0A7019601C1D4DA01C9
:10150000C9010197A109B1098F3F9105A105B10555
:1015100091F088F0D501C4013AE0B595A79597956B
:1015200087953A95D1F70197A109B109CC2309F420
:10153000BECE27E0E9CE26E0ABCE8F3F9105A105D8
:10154000B10509F0A8F624E0A3CE22E0DDCECF91CC
:10155000FF90EF90DF90CF90BF90AF909F908F90D3
:1015600008950F931F93CF93DF93EC0188819981A6
:10157000009729F02A813B812617370780F48B01D9
:101580006F5F7F4FCED5009761F0998388831B836F
:101590000A832C813D81232B11F4FC01108281E010
:1015A00001C080E0DF91CF911F910F910895EF92DC
:1015B000FF920F931F93CF93DF93EC017B018A017E
:1015C000BA01CFDF2881398181110CC02115310585
:1015D00011F0C9010ED5198218821D821C821B824E
:1015E0001A8205C01D830C83B701C9018BD6CE01B9
:1015F000DF91CF911F910F91FF90EF900895CF93BE
:10160000DF93EC01FB0186179707A1F060817181E0
:101610006115710521F044815581C9DF0BC08881B6
:101620009981009709F0E5D4198218821D821C82E5
:101630001B821A82CE01DF91CF910895FC01808137
:101640009181D7C4CF93DF93CDB7DEB728970FB67C
:10165000F894DEBF0FBECDBF789484B5826084BDA0
:1016600084B5816084BD85B5826085BD85B58160A6
:1016700085BD80916E00816080936E001092810024
:1016800080918100826080938100809181008160DF
:1016900080938100809180008160809380008091A0
:1016A000B10084608093B1008091B000816080932C
:1016B000B0008091910082608093910080919100B0
:1016C0008160809391008091900081608093900070
:1016D0008091A10082608093A1008091A10081602F
:1016E0008093A1008091A00081608093A0008091F0
:1016F000210182608093210180912101816080938A
:1017000021018091200181608093200180917A00E5
:10171000846080937A0080917A00826080937A005E
:1017200080917A00816080937A0080917A0080684D
:1017300080937A001092C100E091AC02F091AD026A
:1017400022E02083E091A802F091A9021082E091AA
:10175000AA02F091AB028FEC80831092B402E09168
:10176000B002F091B10296E09083E091AE02F09168
:10177000AF02808180618083E091AE02F091AF0280
:10178000808188608083E091AE02F091AF02808119
:1017900080688083E091AE02F091AF0280818F7DFE
:1017A0008083E0914903F0914A032083E09145034F
:1017B000F091460383E08083E0914703F091480372
:1017C00080E4808310925103E0914D03F0914E0329
:1017D0009083E0914B03F0914C0380818061808382
:1017E000E0914B03F0914C03808188608083E0910D
:1017F0004B03F0914C03808180688083E0914B0320
:10180000F0914C0380818F7D80838EEF93E0E8D947
:1018100011E0109366048DEC93E09093650480933F
:10182000640488EEC82E83E0D82EE12CF12CC092FF
:101830005804D0925904E0925A04F0925B048091CB
:101840005C0490915D04A0915E04B0915F048851A6
:101850009C4FAF4FBF4F8093600490936104A0935F
:101860006204B093630484EF93E0BAD910935304F5
:1018700080ED93E09093520480935104C09245040C
:10188000D0924604E0924704F092480480914904C3
:1018900090914A04A0914B04B0914C0488519C4F04
:1018A000AF4FBF4F80934D0490934E04A0934F04CD
:1018B000B09350046EE272E08CE992E090D98EEE23
:1018C00093E065DB60E08091EA03EBD8109340047D
:1018D00082E993E090933F0480933E041092320497
:1018E000109233041092340410923504809136041F
:1018F00090913704A0913804B091390480933A0450
:1019000090933B04A0933C04B0933D046EE272E0DC
:101910008CE992E064D984EE93E039DB60E0809159
:10192000E003BFD810932D0489E296E090932C0435
:1019300080932B04C0921F04D0922004E0922104D3
:10194000F09222048091230490912404A091250414
:10195000B091260488519C4FAF4FBF4F809327040E
:1019600090932804A0932904B0932A046EE272E0B5
:101970008CE992E034D98AED93E009DB60E0809154
:10198000D6038FD810931A048FEF95E09093190423
:101990008093180410920C0410920D0410920E04FF
:1019A00010920F048091100490911104A0911204E0
:1019B000B09113048093140490931504A09316041B
:1019C000B09317046DE272E0CE0101960E94D3033A
:1019D0006CE372E089E393E002D989E393E0FCD8F9
:1019E0000E9451036B017C010E945103DC01CB0179
:1019F0008C199D09AE09BF09883E9340A105B10528
:101A000048F589E393E00E94D401892B69F389E3C7
:101A100093E00E94B201182F682F8CE992E00E9497
:101A200013021F8318860D811E810F5F1F4FB8019F
:101A3000CE01019696DD8823B9F229813A818D8104
:101A40009E81BE01695F7F4F820F931F5BD41E830F
:101A50000D83CACF8CE992E0BFD8CE01019697DA08
:101A6000CE010196EBDD6FE372E08CE992E09FD846
:101A70008CE992E0B1D861E08091690412D861E00C
:101A800080916A040ED886E594E00E94BA03882308
:101A900021F086E594E00E945D0383E494E00E94D7
:101AA000BA03882321F083E494E00E945D0380E37D
:101AB00094E00E94BA03882321F080E394E00E941E
:101AC0005D038DE194E00E94BA03882321F08DE14B
:101AD00094E00E945D038AE094E00E94BA038823A8
:101AE00021F08AE094E00E945D03809178048230C6
:101AF00009F048C00E9451030091720410917304D0
:101B00002091740430917504AB01BC01401B510B52
:101B1000620B730B80916F0490917004092E000C7E
:101B2000AA0BBB0B481759076A077B0758F10E949D
:101B300051036093720470937304809374049093C0
:101B4000750480916B0490916C042091760430911F
:101B500077042817390721F480916D0490916E0461
:101B60009093770480937604609176047091770463
:101B70008091690418DA60917604709177048091FD
:101B80006A0411DA0E947A027ECF8AED93E056DD74
:101B900084EE93E053DD8EEE93E050DD84EF93E02E
:101BA0004DDD8EEF93E04ACDCF93DF9300D000D090
:101BB000CDB7DEB710923C0310923B0348EE53E0E2
:101BC00060E070E040933D0350933E0360933F0319
:101BD000709340038BE192E090933A038093390332
:101BE0002DEC30E030934603209345032CEC30E09D
:101BF000309348032093470328EC30E030934A03A6
:101C00002093490329EC30E030934C0320934B039D
:101C10002AEC30E030934E0320934D032EEC30E05D
:101C20003093500320934F031092520310925303AA
:101C3000109254031092550310929F0210929E022C
:101C40004093A0025093A1026093A2027093A3025A
:101C500090939D0280939C0285EC90E09093A90262
:101C60008093A80284EC90E09093AB028093AA0248
:101C700080EC90E09093AD028093AC0281EC90E018
:101C80009093AF028093AE0282EC90E09093B10209
:101C90008093B00286EC90E09093B3028093B202FE
:101CA0001092B5021092B6021092B7021092B802CA
:101CB00010927104109272041092730410927404C2
:101CC0001092750480910502809369048091060248
:101CD00080936A04809101029091020290936C04B7
:101CE00080936B04209103023091040230936E04C0
:101CF00020936D0428EE33E03093700420936F043A
:101D0000909377048093760420E030E0A90160E0AE
:101D100070E086E594E00E94530620E030E0A901DF
:101D200060E070E083E494E00E94530620E030E03D
:101D3000A90160E070E080E394E00E94530620E097
:101D400030E0A90160E070E08DE194E00E9453066C
:101D500020E030E0A90160E070E08AE094E00E94B9
:101D6000530689E393E00E94D401892B51F06FE47C
:101D700072E08CE992E00E94D7058CE992E00E9423
:101D8000EC0560E672E0CE0101960E94D3034CE0C0
:101D9000BE016F5F7F4F8EEF93E00CD8CE010196AE
:101DA0004DDC68E672E0CE0101960E94D3034BE061
:101DB000BE016F5F7F4F84EF93E00E94DA06CE0191
:101DC00001963CDC60E772E0CE0101960E94D303ED
:101DD00046E3BE016F5F7F4F8AEE93E00E9490065C
:101DE000CE0101962BDC66E772E0CE0101960E94DF
:101DF000D30347E0BE016F5F7F4F80EE93E00E9408
:101E0000B506CE0101961ADC60E872E0CE010196BB
:101E10000E94D30347E3BE016F5F7F4F86ED93E0DF
:101E20000E94F706CE01019609DC26960FB6F894BB
:101E3000DEBF0FBECDBFDF91CF910895A1E21A2E74
:101E4000AA1BBB1BFD010DC0AA1FBB1FEE1FFF1F5E
:101E5000A217B307E407F50720F0A21BB30BE40BAE
:101E6000F50B661F771F881F991F1A9469F76095F5
:101E70007095809590959B01AC01BD01CF010895AF
:101E8000052E97FB16F400940FD057FD05D0D6DF32
:101E900007FC02D046F408C0509540953095219536
:101EA0003F4F4F4F5F4F0895909580957095619586
:101EB0007F4F8F4F9F4F0895EE0FFF1F881F8BBFDF
:101EC0000790F691E02D1994CF93DF93823091051E
:101ED00010F482E090E0E0919E04F0919F0420E0F5
:101EE00030E0C0E0D0E0309711F1408151814817D7
:101EF0005907C0F04817590761F4828193812097F0
:101F000019F09B838A832BC090939F0480939E0437
:101F100026C02115310519F04217530718F49A010C
:101F2000BE01DF01EF010280F381E02DDCCF21153E
:101F3000310509F1281B390B2430310590F4129634
:101F40008D919C9113976115710521F0FB0193838D
:101F5000828304C090939F0480939E04FD01329677
:101F600044C0FD01E20FF31F819391932250310988
:101F70002D933C933AC020919C0430919D04232BD7
:101F800041F42091090230910A0230939D0420937C
:101F90009C0420910702309108022115310541F47B
:101FA0002DB73EB740910B0250910C02241B350B0C
:101FB000E0919C04F0919D04E217F307A0F42E1B1E
:101FC0003F0B2817390778F0AC014E5F5F4F24179D
:101FD000350748F04E0F5F1F50939D0440939C04BB
:101FE0008193919302C0E0E0F0E0CF01DF91CF91C7
:101FF00008950F931F93CF93DF93009709F48CC03C
:10200000FC0132971382128200919E0410919F046A
:102010000115110581F420813181820F931F2091D8
:102020009C0430919D042817390779F5F0939D049D
:10203000E0939C0471C0D80140E050E0AE17BF07A8
:1020400050F412962D913C911397AD012115310555
:1020500009F1D901F3CF9D01DA0133832283608135
:102060007181860F971F8217930769F4EC0128810D
:102070003981260F371F2E5F3F4F318320838A819E
:102080009B8193838283452B29F4F0939F04E093F3
:102090009E0442C01396FC93EE931297ED01499172
:1020A00059919E01240F351FE217F30771F48081C7
:1020B0009181840F951F029611969C938E93828135
:1020C000938113969C938E931297E0E0F0E0D801F1
:1020D00012968D919C911397009719F0F8018C013D
:1020E000F6CF8D919C9198012E5F3F4F820F931FE9
:1020F00020919C0430919D042817390769F430978A
:1021000029F410929F0410929E0402C0138212823E
:1021100010939D0400939C04DF91CF911F910F9128
:1021200008956F927F928F929F92AF92BF92CF92BB
:10213000DF92EF92FF920F931F93CF93DF93EC0107
:10214000009781F4CB01DF91CF911F910F91FF9008
:10215000EF90DF90CF90BF90AF909F908F907F9047
:102160006F90B2CEFC01E60FF71F9C01225031099F
:10217000E217F30708F4A8C0D9010D911C9111973B
:1021800006171707A8F00530110508F49BC0C80111
:1021900004978617970708F495C002501109061B8B
:1021A000170B019311936D937C93CF0122DF8AC0AB
:1021B0005B01A01AB10A4C01800E911EA0919E04F1
:1021C000B0919F0440E050E0E12CF12C109709F40D
:1021D0004AC0A815B905D1F56D907C90119763019F
:1021E00082E0C80ED11CCA14DB0480F1A3014A1995
:1021F0005B096A0182E0C80ED11C1296BC9012974E
:102200001396AC91B5E0CB16D10440F0B282A38313
:1022100051834083D9016D937C930AC00E5F1F4F99
:10222000C301800F911FF90191838083EB2DFA2F59
:10223000E114F10431F0D7011396FC93EE93129759
:1022400041C0F0939F04E0939E043CC08D919C910B
:1022500011974817590708F4AC017D0112960D90AB
:10226000BC91A02DB3CF80919C0490919D048815C2
:102270009905E1F446175707C8F480910702909139
:102280000802009741F48DB79EB740910B02509120
:102290000C02841B950BE817F907B0F4F0939D042A
:1022A000E0939C04F901718360830CC0CB010CDEC8
:1022B0007C01009749F0A801BE011BD0CE0199DE38
:1022C000C70104C0CE0102C080E090E0DF91CF9151
:1022D0001F910F91FF90EF90DF90CF90BF90AF9044
:1022E0009F908F907F906F90089581E090E0F89498
:1022F00010C0FB01DC0102C001900D924150504022
:10230000D8F70895FB01DC0101900D920020E1F760
:10231000089511E0C6E1D1E000E005C0802FFE0184
:10232000CBDD2196011DC731D10780E00807B1F749
:04233000F894FFCF4F
:10233400FFBC02840304030000A00480000000002A
:102344000074017F035D030000000013024901A330
:10235400015902D401B201C601E8030D0A00436F1A
:102364006E66696775726520002020004154004341
:102374006F6E666967757265205069657A6F00478C
:10238400534D20696E6974207375636365737300BC
:102394004D6F74696F6E31004D6F74696F6E3200EA
:1023A400536F756E640050726F78696D697479004B
:0C23B40048616C6C53656E736F72000022
:020000023000CC
:10E000000D9489F10D94B2F10D94B2F10D94B2F129
:10E010000D94B2F10D94B2F10D94B2F10D94B2F1F0
:10E020000D94B2F10D94B2F10D94B2F10D94B2F1E0
:10E030000D94B2F10D94B2F10D94B2F10D94B2F1D0
:10E040000D94B2F10D94B2F10D94B2F10D94B2F1C0
:10E050000D94B2F10D94B2F10D94B2F10D94B2F1B0
:10E060000D94B2F10D94B2F10D94B2F10D94B2F1A0
:10E070000D94B2F10D94B2F10D94B2F10D94B2F190
:10E080000D94B2F10D94B2F10D94B2F10D94B2F180
:10E090000D94B2F10D94B2F10D94B2F10D94B2F170
:10E0A0000D94B2F10D94B2F10D94B2F10D94B2F160
:10E0B0000D94B2F10D94B2F10D94B2F10D94B2F150
:10E0C0000D94B2F10D94B2F10D94B2F10D94B2F140
:10E0D0000D94B2F10D94B2F10D94B2F10D94B2F130
:10E0E0000D94B2F141546D656761323536300041AF
:10E0F000726475696E6F206578706C6F72657220DE
:10E1000073746B3530305632206279204D4C530099
:10E11000426F6F746C6F616465723E004875683F52
:10E1200000436F6D70696C6564206F6E203D200048
:10E130004350552054797065202020203D20005FF9
:10E140005F4156525F415243485F5F3D2000415658
:10E1500052204C696243205665723D20004743437C
:10E160002056657273696F6E203D20004350552024
:10E1700049442020202020203D20004C6F7720663D
:10E18000757365202020203D20004869676820665F
:10E190007573652020203D200045787420667573D6
:10E1A00065202020203D20004C6F636B2066757336
:10E1B000652020203D20004D617220203720323024
:10E1C000313300312E362E3800342E332E350056A2
:10E1D00023202020414444522020206F7020636F70
:10E1E00064652020202020696E73747275637469E1
:10E1F0006F6E2061646472202020496E74657272B3
:10E20000757074006E6F20766563746F7200726A49
:10E210006D702020006A6D70200057686174207056
:10E220006F72743A00506F7274206E6F7420737541
:10E2300070706F72746564004D7573742062652030
:10E2400061206C6574746572002000577269747483
:10E25000696E672045450052656164696E672045B7
:10E26000450045452065727220636E743D00504F35
:10E27000525400303D5A65726F2061646472003FF1
:10E280003D43505520737461747300403D454550C3
:10E29000524F4D207465737400423D426C696E6B41
:10E2A000204C454400453D44756D70204545505215
:10E2B0004F4D00463D44756D7020464C415348001B
:10E2C000483D48656C70004C3D4C69737420492F83
:10E2D0004F20506F72747300513D51756974005234
:10E2E0003D44756D702052414D00563D73686F7707
:10E2F00020696E7465727275707420566563746FF0
:10E30000727300593D506F727420626C696E6B00BD
:10E310002A0011241FBECFEFD1E2DEBFCDBF01E046
:10E320000CBF12E0A0E0B2E0EEE1FDEF03E00BBFB6
:10E3300002C007900D92A030B107D9F712E0A0E01B
:10E34000B2E001C01D92AE30B107E1F70F9460F367
:10E350000D948DFE01E20EBF0FEF0DBF11241FBE05
:10E360000D9460F30D9400F020E030E040ED57E0B4
:10E3700005C0FA013197F1F72F5F3F4F2817390792
:10E38000C0F308959C01260F311DC901A0E0B0E043
:10E390002F5F3F4FABBFFC018791882361F08093D3
:10E3A000C6008091C00086FFFCCF8091C0008064D1
:10E3B0008093C000EACF08958DE08093C6008091DD
:10E3C000C00086FFFCCF8091C00080648093C000B5
:10E3D0008AE08093C6008091C00086FFFCCF8091C8
:10E3E000C00080648093C00008950F94C2F10F9420
:10E3F000DCF10895FC019081992359F09093C600B7
:10E400008091C00086FFFCCF8091C0008064809323
:10E41000C0003196992379F70895282F982F929567
:10E420009F70892F805D8A3308F0895F8093C600D2
:10E430008091C00086FFFCCF8091C00080648093F3
:10E44000C000822F8F70982F905D9A3308F0995FEB
:10E450009093C6008091C00086FFFCCF8091C000E1
:10E4600080648093C00008959C01FB01853691056E
:10E470001CF46330710594F0C90164E670E00F94F8
:10E480002EFE605D7F4F6093C6008091C00086FFC6
:10E49000FCCF8091C00080648093C0002B30310598
:10E4A00014F43297B4F0C90164E670E00F942EFEC4
:10E4B0006AE070E00F942EFE605D7F4F6093C600AF
:10E4C0008091C00086FFFCCF8091C0008064809363
:10E4D000C000C9016AE070E00F942EFEC0968093E0
:10E4E000C6008091C00086FFFCCF8091C000806490
:10E4F0008093C00008951F93182F8EE692EE60E07F
:10E500000F94C2F11093C6008091C00086FFFCCF2B
:10E510008091C00080648093C0000F94DCF11F9153
:10E5200008952F923F924F925F926F927F928F92B7
:10E530009F92AF92BF92CF92DF92EF92FF920F9392
:10E540001F93DF93CF93CDB7DEB762970FB6F894E2
:10E55000DEBF0FBECDBF382E622ECA01DB015C01CB
:10E560006D01772420E2222E2E010894411C511CBB
:10E570008BC081E0A81680E0B80681E0C80680E084
:10E58000D80628F0C601AA27BB270F940DF2BB2797
:10E59000AD2D9C2D8B2D0F940DF28A2D0F940DF225
:10E5A0002092C6008091C00086FFFCCF8091C00001
:10E5B00080648093C0009DE29093C6008091C0006B
:10E5C00086FFFCCF8091C00080648093C0002092C1
:10E5D000C6008091C00086FFFCCF8091C00080649F
:10E5E0008093C00019828601750188249924A1E0D6
:10E5F0003A1651F03A1620F0B2E03B1661F409C029
:10E600000BBFF701779007C0C7010F9477FE782EF4
:10E6100002C0F7017080872D0F940DF22092C60082
:10E620008091C00086FFFCCF8091C0008064809301
:10E63000C000872D8052F401EF70F0708F3520F408
:10E64000E40DF51D708204C0E40DF51D8EE280839B
:10E650000894E11CF11C011D111D0894811C911CE2
:10E6600090E18916910409F0C2CF80E190E0A0E02A
:10E67000B0E0A80EB91ECA1EDB1E198AC2010F9493
:10E68000FAF10F94DCF16A94662009F072CF629679
:10E690000FB6F894DEBF0FBECDBFCF91DF911F91B3
:10E6A0000F91FF90EF90DF90CF90BF90AF909F9031
:10E6B0008F907F906F905F904F903F902F90089534
:10E6C0002F923F924F925F926F927F928F929F9282
:10E6D000AF92BF92CF92DF92EF92FF920F931F9370
:10E6E000DF93CF93CDB7DEB7CD53D1400FB6F894BB
:10E6F000DEBF0FBECDBF01E20EBF0FEF0DBF94B75F
:10E70000F894A89514BE80916000886180936000A1
:10E7100010926000789493FF05C0E0910002F091A0
:10E7200001021995279A2F9A8091C00082608093E8
:10E73000C00080E18093C40088E18093C1000000A4
:10E74000EE24FF24870144E0A42EB12CCC24DD2448
:10E7500024C0C5010197F1F70894E11CF11C011DCB
:10E76000111D21E2E2162EE4F20620E0020720E06D
:10E77000120718F031E0C32ED12CC801B70127ECE5
:10E780003BE140E050E00F9441FE611571058105C9
:10E79000910519F485B1805885B98091C00087FD35
:10E7A00003C0C114D104A9F2A6014F5F5F4FC25E3E
:10E7B000DE4F59834883CE51D140C25EDE4F8881FF
:10E7C0009981CE51D140019711F00D9410FEC05D9A
:10E7D000DE4F19821882C053D14060E0C15DDE4F28
:10E7E0001882CF52D14088249924C35DDE4F19820C
:10E7F0001882CD52D140C05EDE4F188219821A8233
:10E800001B82C052D140CE5CDE4F188219821A8220
:10E810001B82C253D140EE24FF2487010BBFF701B6
:10E8200007911691C45CDE4F19830883CC53D14005
:10E830000D940BFEC25EDE4F28813981CE51D1404E
:10E840002130310509F52091C600C25EDE4F1982E4
:10E850001882CE51D14022C02F5F3F4F4F4F5F4FA4
:10E86000213082E138078AE7480780E0580780F0C6
:10E87000C45CDE4FE881F981CC53D140EF5FFF4F9C
:10E8800019F0EE27FF27099420E030E040E050E047
:10E890008091C00087FFE0CF2091C600C35DDE4FAE
:10E8A00048815981CD52D1404F5F5F4FC35DDE4FEC
:10E8B00059834883CD52D140213209F063C64A3092
:10E8C000510508F05FC60894811C911C53E0851621
:10E8D000910409F059C600E010E018C081E280936D
:10E8E000C6008091C00086FFFCCF8091C00080648C
:10E8F0008093C0002F5F3F4F2931310579F70F9486
:10E90000DCF10F5F1F4F0530110519F020E030E0FA
:10E91000E5CF10920A0210920B0210920C02109294
:10E920000D02109206021092070210920802109235
:10E930000902109202021092030210920402109235
:10E9400005028FEE90EE60E00F94F5F180E191EE1C
:10E9500060E00F94C2F18091C00087FFFCCF9091DE
:10E96000C600903608F09F759032B8F09093C600BC
:10E970008091C00086FFFCCF8091C00080648093AE
:10E98000C000A0E2A093C6008091C00086FFFCCF2B
:10E990008091C00080648093C000983409F4D7C18E
:10E9A0009934B8F4923409F459C1933458F490333B
:10E9B00019F1903308F4E3C59F33A1F1903409F0C5
:10E9C000DEC5BDC0953409F470C1963409F0D7C5D1
:10E9D00098C1923509F42BC2933538F49C3409F46C
:10E9E000F5C1913509F0CBC518C2963509F445C279
:10E9F000993509F0C4C567C483E792EE62E00F94CD
:10EA0000F5F110920602109207021092080210927D
:10EA1000090210920A0210920B0210920C0210923C
:10EA20000D0213C18FE792EE62E00F94F5F18FEEC5
:10EA300090EE60E00F94F5F181E291EE60E00F94CA
:10EA4000C2F187EB91EE60E00F94F5F180E391EE77
:10EA500060E00F94C2F184EE90EE60E00F94F5F167
:10EA60008FE391EE60E00F94C2F186E090E061E008
:10EA700070E00F9434F20F94DCF18DE591EE60E0DC
:10EA80000F94C2F189EC91EE60E00F94F5F18EE401
:10EA900091EE60E00F94C2F183EC91EE60E00F9490
:10EAA000F5F18CE691EE60E00F94C2F18EE10F94E7
:10EAB0000DF288E90F940DF281E00F940DF20F949E
:10EAC000DCF18BE791EE60E00F94C2F119E0E0E039
:10EAD000F0E010935700E4918E2F0F940DF20F94F5
:10EAE000DCF18AE891EE60E00F94C2F1E3E0F0E03F
:10EAF00010935700E4918E2F0F940DF20F94DCF1D8
:10EB000089E991EE60E00F94C2F1E2E0F0E0109349
:10EB10005700E4918E2F0F940DF20F94DCF188EAE8
:10EB200091EE60E00F94C2F1E1E0F0E01093570045
:10EB30001491812F0F940DF20F94DCF107CF8BE825
:10EB400092EE62E00F94F5F18BE492EE60E00F94A8
:10EB5000F5F10F94DCF100E010E019C0C8016F2D51
:10EB60000F947FFEFF2031F489E492EE60E00F9471
:10EB7000C2F10BC0F092C6008091C00086FFFCCFAE
:10EB80008091C00080648093C0000F5F1F4FC80158
:10EB900081519F41A0E0B0E0ABBFFC01F790BAE229
:10EBA000FB1621F0E2E000301E07C1F60F94DCF105
:10EBB0000F94DCF187E592EE60E00F94F5F10F948D
:10EBC000DCF1CC24DD2400E010E01EC0C8010F946D
:10EBD00077FEF82E882331F489E492EE60E00F94FA
:10EBE000C2F10BC08093C6008091C00086FFFCCFAD
:10EBF0008091C00080648093C000FE1419F00894D6
:10EC0000C11CD11C0F5F1F4FC80181519F41A0E063
:10EC1000B0E0ABBFFC01E790FAE2EF1621F022E092
:10EC20000030120799F60F94DCF10F94DCF182E6C4
:10EC300092EE60E00F94C2F1C60161E070E00F94C3
:10EC400034F20F94DCF10F94DCF110920202109276
:10EC50000302109204021092050278CE89E992EE26
:10EC600062E00F94F5F1279A2F9A16C02F9880E052
:10EC700090E0E0EDF7E03197F1F7019684369105E9
:10EC8000C1F72F9A80E090E0E0EDF7E03197F1F7DF
:10EC9000019684369105C1F78091C00087FFE6CFC9
:10ECA0008091C00087FFFCCF64C485EA92EE62E0E9
:10ECB0000F94F5F140910202509103026091040219
:10ECC0007091050281E020E10F9491F2809102029F
:10ECD00090910302A0910402B091050280509F4FD1
:10ECE000AF4FBF4F8093020290930302A0930402A0
:10ECF000B093050280509041A040B04008F426CE69
:10ED0000A4CF83EB92EE62E00F94F5F140910602FE
:10ED100050910702609108027091090280E020E1A1
:10ED20000F9491F28091060290910702A09108023F
:10ED3000B091090280509F4FAF4FBF4F80930602A2
:10ED400090930702A0930802B0930902FFCD80ECD4
:10ED500092EE62E00F94F5F183E792EE60E00F949B
:10ED6000F5F18FE792EE60E00F94F5F18BE892EE0B
:10ED700060E00F94F5F189E992EE60E00F94F5F10F
:10ED800085EA92EE60E00F94F5F183EB92EE60E09D
:10ED90000F94F5F180EC92EE60E00F94F5F187ECC2
:10EDA00092EE60E00F94F5F188ED92EE60E00F9442
:10EDB000F5F18FED92EE60E00F94F5F18AEE92EEB0
:10EDC00060E00F94F5F183E093EEBDCD87EC92EE19
:10EDD00062E00F94F5F181E40F947BF282E40F94EA
:10EDE0007BF283E40F947BF284E40F947BF285E45E
:10EDF0000F947BF286E40F947BF287E40F947BF20E
:10EE000088E40F947BF28AE40F947BF28BE40F94F6
:10EE10007BF28CE40F947BF299CD88ED92EE62E068
:10EE20000F94F5F1772473948824992409C48FED05
:10EE300092EE62E00F94F5F140910A0250910B02BC
:10EE400060910C0270910D0282E020E10F9491F22A
:10EE500080910A0290910B02A0910C02B0910D02D8
:10EE600080509F4FAF4FBF4F80930A0290930B0289
:10EE7000A0930C02B0930D0269CD8AEE92EE62E08F
:10EE80000F94F5F184EE90EE60E00F94F5F18FECC5
:10EE900091EE60E00F94F5F1662477244301CC5D98
:10EEA000DE4F19821882C452D140D401C301B695F5
:10EEB000A79597958795CA5DDE4F88839983AA8326
:10EEC000BB83C652D140CC5DDE4FA881B981C4520C
:10EED000D1401196CC5DDE4FB983A883C452D14096
:10EEE000CD0162E070E00F9434F2B0E2B093C6005E
:10EEF0008091C00086FFFCCF8091C0008064809329
:10EF0000C000EDE2E093C6008091C00086FFFCCF18
:10EF10008091C00080648093C000F0E2F093C6004E
:10EF20008091C00086FFFCCF8091C00080648093F8
:10EF3000C000CA5DDE4FE880F9800A811B81C6529D
:10EF4000D140BB27A12F902F8F2D0F940DF2CA5DBA
:10EF5000DE4F8881C652D1400F940DF2B0E2FB2EF5
:10EF6000F092C6008091C00086FFFCCF8091C00067
:10EF700080648093C0000DE30093C6008091C000C0
:10EF800086FFFCCF8091C00080648093C00010E2B7
:10EF90001093C6008091C00086FFFCCF8091C00016
:10EFA00080648093C0008BBEF3012791C65DDE4F65
:10EFB0002883CA52D140A22EBB24CC24DD2408943D
:10EFC000611C711C811C911C8BBEF3018791282E42
:10EFD0003324442455240894611C711C811C911C09
:10EFE0008BBEF3013791C55DDE4F3883CB52D140E4
:10EFF0000894611C711C811C911C8BBEF30147910C
:10F00000C45DDE4F4883CC52D140ADEFEA2EAFEF66
:10F01000FA2EAFEF0A2FAFEF1A2F6E0C7F1C801E57
:10F02000911E142D032DF22CEE24EA0CFB1C0C1D5A
:10F030001D1D0F940DF220E22093C6008091C000A8
:10F0400086FFFCCF8091C00080648093C000C65DC5
:10F05000DE4F8881CA52D1400F940DF230E23093D6
:10F06000C6008091C00086FFFCCF8091C000806404
:10F070008093C000C45DDE4F8881CC52D1400F9494
:10F080000DF240E24093C6008091C00086FFFCCFA5
:10F090008091C00080648093C000C55DDE4F888190
:10F0A000CB52D1400F940DF250E25093C6008091A4
:10F0B000C00086FFFCCF8091C00080648093C000B8
:10F0C0008FEFE8168FEFF80680E0080780E018075A
:10F0D00031F484E092EE60E00F94C2F1DFC0D80119
:10F0E000C7018070907CA070B0708050904CA040A0
:10F0F000B040D1F52FEF3FE340E050E0E222F322B1
:10F1000004231523CA5DDE4FA880B980CA80DB8046
:10F11000C652D140AE0CBF1CC01ED11EAA0CBB1CD7
:10F12000CC1CDD1C8EE092EE60E00F94C2F1BB2798
:10F13000A12F902F8F2D0F940DF28E2D0F940DF285
:10F1400030E23093C6008091C00086FFFCCF8091F2
:10F15000C00080648093C0004EE34093C60080915D
:10F16000C00086FFFCCF87C08EE09EEFA0E0B0E03D
:10F17000E822F9220A231B239CE0E91694E9F90608
:10F1800090E0090790E0190709F088C0C45DDE4FE0
:10F19000A881CC52D140EA2EFF2400E010E0102FCD
:10F1A0000F2DFE2CEE24C55DDE4FB881CB52D14031
:10F1B000EB0EF11C011D111DD601C501817090706F
:10F1C000A070B070DC0199278827E80EF91E0A1F8D
:10F1D0001B1F20EF30E040E050E0A222B322C42207
:10F1E000D52241E1AA0CBB1CCC1CDD1C4A95D1F7F1
:10F1F000EA0CFB1C0C1D1D1D81E090E0A0E0B0E0BE
:10F20000282239224A225B2235E1220C331C441C7D
:10F21000551C3A95D1F7E20CF31C041D151D57013E
:10F220006801AA0CBB1CCC1CDD1C85E192EE60E0E1
:10F230000F94C2F1C801AA27BB270F940DF2BB2778
:10F24000A12F902F8F2D0F940DF28E2D0F940DF274
:10F2500090E29093C6008091C00086FFFCCF809121
:10F26000C00080648093C000AEE3A093C60080918C
:10F27000C00086FFFCCF8091C00080648093C000F6
:10F28000C601AA27BB270F940DF2BB27AD2D9C2DDD
:10F290008B2D0F940DF28A2D0F940DF20F94DCF14B
:10F2A000CC5DDE4FE881F981C452D140F99709F471
:10F2B0004DCBF4E0EF2EF12C012D112D6E0C7F1CA7
:10F2C000801E911EF2CD83E093EE62E00F94F5F183
:10F2D0008AE192EE60E00F94C2F18091C00087FF56
:10F2E000FCCF1091C6001F751093C6008091C0001E
:10F2F00086FFFCCF8091C00080648093C0000F9493
:10F30000DCF1812F81548A3108F036C1163409F4BA
:10F3100095C0173490F4133409F44EC0143430F40B
:10F320001134F1F0123409F01DC130C0143409F465
:10F3300059C0153409F016C16BC01A3409F4C4C0A1
:10F340001B3438F4173409F48FC0183409F00AC19B
:10F35000A1C01B3409F4D2C01C3409F003C1E8C0B9
:10F360008FEF81B90DC082B1809582B980E090E0C5
:10F37000E0EDF7E03197F1F70196883C9105C1F790
:10F380008091C00087FFEFCF12B8EFC08FEF84B934
:10F390000DC085B1809585B980E090E0E0EDF7E0A3
:10F3A0003197F1F70196883C9105C1F78091C00033
:10F3B00087FFEFCF15B8D9C08FEF87B90DC088B1DF
:10F3C000809588B980E090E0E0EDF7E03197F1F7C3
:10F3D0000196883C9105C1F78091C00087FFEFCF6F
:10F3E00018B8C3C08FEF8AB90DC08BB180958BB9A7
:10F3F00080E090E0E0EDF7E03197F1F70196883C8E
:10F400009105C1F78091C00087FFEFCF1BB8ADC059
:10F410008FEF8DB90DC08EB180958EB980E090E0F0
:10F42000E0EDF7E03197F1F70196883C9105C1F7DF
:10F430008091C00087FFEFCF1EB897C08FEF80BBD1
:10F440000DC081B3809581BB80E090E0E0EDF7E0F6
:10F450003197F1F70196883C9105C1F78091C00082
:10F4600087FFEFCF11BA81C08FEF83BB0DC084B38C
:10F47000809584BB80E090E0E0EDF7E03197F1F714
:10F480000196883C9105C1F78091C00087FFEFCFBE
:10F4900014BA6BC08FEF809301010FC080910201FD
:10F4A00080958093020180E090E0E0EDF7E03197F5
:10F4B000F1F70196883C9105C1F78091C00087FF64
:10F4C000EDCF1092020151C08FEF809304010FC065
:10F4D0008091050180958093050180E090E0E0ED4A
:10F4E000F7E03197F1F70196883C9105C1F78091DB
:10F4F000C00087FFEDCF1092050137C08FEF8093DA
:10F5000007010FC08091080180958093080180E079
:10F5100090E0E0EDF7E03197F1F70196883C910536
:10F52000C1F78091C00087FFEDCF109208011DC088
:10F530008FEF80930A010FC080910B01809580931B
:10F540000B0180E090E0E0EDF7E03197F1F70196F4
:10F55000883C9105C1F78091C00087FFEDCF1092E4
:10F560000B0103C085E292EEEEC98091C00087FFD7
:10F57000FCCF8091C600EAC988E392EEE4C98CE131
:10F5800091EEE1C988249924933011F1943028F444
:10F59000913089F09230B8F408C0953061F195301F
:10F5A000F0F0963009F048C043C02B3109F042C951
:10F5B00091E06BE13FC96227C15DDE4F2883CF52E6
:10F5C000D14092E037C9B22FA0E0622793E032C960
:10F5D000822F90E0A82BB92B622794E02BC92E3004
:10F5E00009F039C3622795E0C05DDE4F19821882A9
:10F5F000C053D1401FC9E1E0F0E0EC0FFD1FC05D3A
:10F60000DE4F08811981C053D140E00FF11F2083E4
:10F610000F5F1F4FC05DDE4F19830883C053D14079
:10F6200062270A171B0709F005C9D80196E002C92D
:10F63000261709F010C303C0973009F0FBC87724E0
:10F640009981933109F412C19431C8F4963009F4C8
:10F65000D8C0973050F4923009F406C1933009F4C1
:10F660006DC0913009F059C253C0913109F477C08F
:10F67000923108F0BBC0903109F04FC2F5C098310B
:10F6800009F487C0993150F4953109F4EFC09531F0
:10F6900008F4C6C1963109F040C2C2C19A3109F4DA
:10F6A0006CC09A3108F491C09B3109F45BC09D3164
:10F6B00009F033C29D81903359F48F81882311F46E
:10F6C0009EE11CC0813011F091E018C098E916C08D
:10F6D000892F807591F0903539F4E0E0F0E089E011
:10F6E0008093570094910AC0983539F4E3E0F0E034
:10F6F00089E080935700949101C090E01A821B82A8
:10F700008D818C831D829E831F8227E030E009C299
:10F710001A8288E08B8381E48C8386E58D8382E581
:10F720008E8389E48F8383E5888780E589878FE5E9
:10F730008A8782E38B872BE030E0F3C18A818139AD
:10F7400041F0823941F0803911F48FE005C080E04A
:10F7500003C082E001C08AE01A828B8344C0772410
:10F76000739482C08D81882311F48EE12CC0813086
:10F7700011F081E028C088E926C01A82E1E0F0E0BB
:10F7800089E08093570084918B831C8224E030E0D1
:10F79000C8C18B81803589F48C81883039F4E2E0EE
:10F7A000F0E089E08093570084910DC0E0E0F0E044
:10F7B00089E080935700849106C0E3E0F0E089E09F
:10F7C0008093570084911A82DFCF8D81836C99E0FA
:10F7D000E1E0F0E0082E90935700E89507B600FCB2
:10F7E000FDCF1A821B8223E030E09BC180EC8A832C
:10F7F000CE5CDE4F188219821A821B82C253D1401E
:10F800008EC18A8190E0A0E0B0E0582F44273327D2
:10F8100022278B8190E0A0E0B0E0DC0199278827C7
:10F82000282B392B4A2B5B2B8D8190E0A0E0B0E098
:10F83000282B392B4A2B5B2B8C8190E0A0E0B0E089
:10F84000BA2FA92F982F8827282B392B4A2B5B2BCF
:10F85000220F331F441F551FC05EDE4F288339839C
:10F860004A835B83C052D1401A8259C13A81C95C34
:10F87000DE4F3883C753D140CA5CDE4F1882C6536F
:10F88000D1408B81C82EDD24CA5CDE4F488159816E
:10F89000C653D140C42AD52A933109F082C0CE5C28
:10F8A000DE4F88819981AA81BB81C253D1408050AB
:10F8B000904CA340B04030F583E0CE5CDE4FE88052
:10F8C000F9800A811B81C253D140F70100935B008C
:10F8D00080935700E89507B600FCFDCFCE5CDE4F65
:10F8E000088119812A813B81C253D14000501F4FAA
:10F8F0002F4F3F4FCE5CDE4F088319832A833B8313
:10F90000C253D140C05EDE4F488159816A817B81FC
:10F91000C052D140DE011B9631E08C9111962C91A2
:10F9200011971296C75CDE4F2883C953D140C85C3B
:10F93000DE4F1882C853D14090E0C85CDE4FE881AA
:10F94000F981C853D1408E2B9F2B0C01FA01609393
:10F950005B0030935700E89511244E5F5F4F6F4F67
:10F960007F4F0EEFE02E0FEFF02ECE0CDF1CC114F8
:10F97000D10499F685E0C05EDE4F088119812A81A5
:10F980003B81C052D140F80120935B008093570027
:10F99000E89507B600FCFDCF81E180935700E8951C
:10F9A00035C0C05EDE4F88819981AA81BB81C0527B
:10F9B000D140B695A795979587957C018601ABE0D8
:10F9C000AA2EB12CAC0EBD1E0BC0D5016D915D01F0
:10F9D000C7010F947FFE0894E11CF11C01501040F8
:10F9E0000115110591F7A60160E070E0440F551F65
:10F9F000661F771FC05EDE4FE880F9800A811B8199
:10FA0000C052D1404E0D5F1D601F711F1A82C05E33
:10FA1000DE4F488359836A837B83C052D1407FC0C5
:10FA2000FA80C55CDE4FF882CB53D140C65CDE4F16
:10FA30001882CA53D1408B81C82EDD24C65CDE4FAC
:10FA400008811981CA53D140C02AD12A1A828981DA
:10FA5000BE016D5F7F4F843121F59601C05EDE4FA0
:10FA6000E880F9800A811B81C052D1400BBFF701A9
:10FA700087919691DB018C9311969C936E5F7F4FDB
:10FA8000D801C7010296A11DB11DC05EDE4F88835B
:10FA90009983AA83BB83C052D14022503040F1F6F3
:10FAA00036C0C05EDE4F288139814A815B81C052F9
:10FAB000D1400894C108D108760100E010E0089414
:10FAC000C11CD11C0894E11CF11C011D111DE20E8A
:10FAD000F31E041F151F21BDBB27A52F942F832FB5
:10FAE00082BD2F5F3F4F4F4F5F4FF89A80B5DB01CC
:10FAF0008D93BD012E153F054007510761F7C05E8C
:10FB0000DE4F288339834A835B83C052D1409601FC
:10FB10002D5F3F4FFB01108204C080EC8A8322E0FE
:10FB200030E08BE18093C6008091C00086FFFCCF5F
:10FB30008091C00080648093C000C15DDE4FF88179
:10FB4000CF52D140F093C6008091C00086FFFCCF19
:10FB50008091C00080648093C000432F3093C60022
:10FB60008091C00086FFFCCF8091C00080648093AC
:10FB7000C000922F2093C6008091C00086FFFCCF6A
:10FB80008091C00080648093C0008EE08093C600A6
:10FB90008091C00086FFFCCF8091C000806480937C
:10FBA000C00065E1C15DDE4FE880CF52D1406E25D7
:10FBB00069276427FE01319610C090819093C6009A
:10FBC0008091C00086FFFCCF31968091C000806498
:10FBD0008093C0006927215030402115310569F715
:10FBE0006093C6008091C00086FFFCCF8091C0006A
:10FBF00080648093C00085B1805885B9772081F4F6
:10FC0000C15DDE4F0881CF52D1400F5FC15DDE4F35
:10FC10000883CF52D14090E0A0E0B0E00D941AF4F8
:10FC200027982F9880E090E020ED37E0F901319798
:10FC3000F1F7019684369105C9F700008091C00064
:10FC40008D7F8093C00081E180935700E895EE2777
:10FC5000FF270994FFCF90E00D941AF497FB092E2B
:10FC600007260AD077FD04D02ED006D000201AF443
:10FC7000709561957F4F0895F6F7909581959F4F08
:10FC80000895A1E21A2EAA1BBB1BFD010DC0AA1FDD
:10FC9000BB1FEE1FFF1FA217B307E407F50720F0F5
:10FCA000A21BB30BE40BF50B661F771F881F991F70
:10FCB0001A9469F760957095809590959B01AC01B9
:10FCC000BD01CF010895AA1BBB1B51E107C0AA1FAC
:10FCD000BB1FA617B70710F0A61BB70B881F991FED
:10FCE0005A95A9F780959095BC01CD010895F99991
:10FCF000FECF92BD81BDF89A992780B50895262F31
:10FD0000F999FECF1FBA92BD81BD20BD0FB6F89400
:0EFD1000FA9AF99A0FBE01960895F894FFCF63
:040000033000E000E9
:00000001FF