:1000000016C1000045C1000043C1000041C100000D
:100010003FC100003DC100003BC1000039C10000EC
:1000200037C1000035C1000033C1000031C10000FC
:100030002FC10000A3C300002BC1000029C1000094
:1000400027C1000025C1000023C1000021C100001C
:100050001FC100001DC100001BC100000C948D0BCE
:1000600017C100000BC30000E0C2000011C1000076
:100070000FC100000DC100000BC1000009C100004C
:1000800007C1000005C1000003C1000001C100005C
:10009000A3C2000078C20000FBC00000F9C000004D
:1000A000F7C00000F5C00000F3C00000F1C0000080
:1000B000EFC00000EDC00000EBC00000E9C0000090
:1000C000E7C00000E5C00000E3C00000E1C00000A0
:1000D000DFC00000DDC00000DBC00000D9C00000B0
:1000E000D7C00000E109E409D309D709DD091B0ADB
:1000F000E809EC09F209F609FA09000A040A080AF3
:100100001B0A0E0A120A160A00002000230026000D
:1001100029002C002F00320000010000030106011D
:10012000090100000A0B02090C0D0E080703040167
:1001300000000000000000000000000000000000BF
:10014000000000000000000000000000000012118C
:10015000100000000000000000000000000000008F
:10016000000000000000000001021020200808101C
:100170002040102040800201020108040201010217
:1001800004081020408080402010080402018004F0
:10019000020180402010080402010804020101024B
:1001A0000408102040800102040810204080000054
:1001B0002200250028002B002E003100340002010F
:1001C0000000050108010B010505050507050808E4
:1001D0000808020202020A0A0808040404040101D1
:1001E00001010101010103030303030303030407E6
:1001F00007070C0C0C0C0C0C0C0C0202020206067D
:100200000606060606060B0B0B0B0B0B0B0B020070
:10021000002100240027002A002D003000330001B7
:10022000010000040107010A0100EE1074121124FC
:100230001FBECFEFD1E2DEBFCDBF00E00CBF26E096
:10024000A6E4B4E001C01D92AC3BB207E1F714E0B4
:10025000A0E0B2E0ECE3FAE200E00BBF02C00790DE
:100260000D92A634B107D9F711E0C6E1D1E000E064
:1002700006C021970109802FFE010E94C612C531D8
:10028000D10780E00807A9F70E944F0D0C940D15C7
:10029000B7CECF92DF92EF92FF920F931F93CF933F
:1002A000DF936C017A018B01C0E0D0E0CE15DF0551
:1002B00089F0D8016D918D01D601ED91FC910190ED
:1002C000F081E02DC6011995892B11F47E0102C041
:1002D0002196ECCFC701DF91CF911F910F91FF9035
:1002E000EF90DF90CF900895FC01A089B1898C91A7
:1002F000A689B78982FD0FC09C91818D8F5F8F7316
:10030000228D821749F0218DDF01A20FB11D5D966C
:100310009C93818F08958C910895089580E090E0DA
:100320000895FC01538D448D252F30E0842F90E0FB
:10033000821B930B541710F0CF96089501970895E0
:10034000FC01918D828D981761F0828DDF01A80FDD
:10035000B11D5D968C91928D9F5F9F73928F90E0FF
:1003600008958FEF9FEF0895FC01918D828D98176E
:1003700031F0828DE80FF11D858D90E008958FEFAB
:100380009FEF0895FC01918D228D892F90E0805C74
:100390009F4F821B91098F739927089580E295E002
:1003A000F1DF21E0892B09F420E0822F08958DE40C
:1003B00094E0E8DF21E0892B09F420E0822F089502
:1003C000FC01848DDF01A80FB11DA35ABF4F2C91F2
:1003D000848D90E001968F739927848FA689B789C1
:1003E0002C93A089B1898C9180648C93938D848D9A
:1003F000981306C00288F389E02D80818F7D808369
:100400000895EF92FF920F931F93CF93DF93EC0128
:1004100081E0888F9B8D8C8D981305C0E889F989C0
:10042000808185FD23C0F62E0B8D10E00F5F1F4FDE
:100430000F731127E02E8C8DE8120BC00FB607FC4E
:10044000FACFE889F989808185FFF5CFCE01B8DF41
:10045000F2CF8B8DFE01E80FF11DE35AFF4FF082C2
:100460000B8FEA89FB898081806207C0EE89FF8952
:100470006083E889F98980818064808381E090E0ED
:10048000DF91CF911F910F91FF90EF900895CF933F
:10049000DF93EC01888D8823C1F0EA89FB89808194
:1004A00085FD05C0A889B9898C9186FD0EC00FB65F
:1004B00007FCF5CF808185FFF2CFA889B9898C919F
:1004C00085FFEDCFCE017CDFE8CFDF91CF9108959E
:1004D00080E090E0892B19F06ADF811120C080E074
:1004E00090E0892B19F05ADF81111CC080E090E068
:1004F000892B41F080E090E0892B21F00E940000E0
:10050000811113C080E090E0892BA1F080E090E0A1
:10051000892B81F00E94000081110AC008950E9479
:100520000000DDCF0E940000E1CF0E940000EACF72
:100530000C9400000895FC01118210821382128233
:10054000158214826115710549F0FB0101900020AC
:10055000E9F73197AF01461B570B32C608950F9349
:100560001F93CF93DF93EC010E94090C8C0161EE85
:1005700072E0CE010E94090C800F911FDF91CF9194
:100580001F910F9108951F920F920FB60F92112491
:100590000BB60F922F933F934F935F936F937F937D
:1005A0008F939F93AF93BF93EF93FF9380E295E078
:1005B00007DFFF91EF91BF91AF919F918F917F9155
:1005C0006F915F914F913F912F910F900BBE0F90C4
:1005D0000FBE0F901F9018951F920F920FB60F929B
:1005E00011240BB60F922F933F934F935F936F930A
:1005F0007F938F939F93AF93BF93EF93FF9380E28B
:1006000095E072DEFF91EF91BF91AF919F918F9135
:100610007F916F915F914F913F912F910F900BBE02
:100620000F900FBE0F901F9018951F920F920FB64C
:100630000F9211240BB60F922F933F934F935F931A
:100640006F937F938F939F93AF93BF93EF93FF939A
:100650008DE494E0B5DEFF91EF91BF91AF919F9152
:100660008F917F916F915F914F913F912F910F905B
:100670000BBE0F900FBE0F901F9018951F920F92F8
:100680000FB60F9211240BB60F922F933F934F93F7
:100690005F936F937F938F939F93AF93BF93EF93EA
:1006A000FF938DE494E020DEFF91EF91BF91AF9135
:1006B0009F918F917F916F915F914F913F912F917A
:1006C0000F900BBE0F900FBE0F901F901895CF93F9
:1006D000DF93282F30E0F901EE5DFE4F8491F901A0
:1006E000E859FE4FD491F901E853FE4FC491CC2351
:1006F00089F081114BD6EC2FF0E0EE0FFF1FE85F81
:10070000FE4FA591B491EC91ED2381E090E021F4AE
:1007100080E002C080E090E0DF91CF9108951F93C8
:10072000CF93DF93282F30E0F901EE5DFE4F8491E7
:10073000F901E859FE4FD491F901E853FE4FC491F5
:10074000CC23C1F0162F811121D6EC2FF0E0EE0F53
:10075000FF1FE255FE4FA591B4918FB7F894111188
:1007600005C09C91ED2FE095E92302C0EC91ED2BA3
:10077000EC938FBFDF91CF911F9108951F920F923D
:100780000FB60F9211240BB60F922F933F934F93F6
:100790005F936F937F938F939F93AF93BF93EF93E9
:1007A000FF938091490490914A04A0914B04B09129
:1007B0004C04892B8A2B8B2B59F180914604E091B4
:1007C0004704F091480490818927808380914904EF
:1007D00090914A04A0914B04B0914C04181619064C
:1007E0001A061B060CF055C08091490490914A04EA
:1007F000A0914B04B0914C040197A109B1098093D9
:10080000490490934A04A0934B04B0934C0441C014
:1008100080910002EEE0F2E0E4919FEF90930002FD
:10082000E230C9F050F4EE2399F0E13081F5909177
:100830006F009D7F90936F002AC0E43019F1E0F0C3
:10084000E53029F5909173009D7F909373001FC050
:1008500010926E001CC0909170009D7F909370006C
:1008600091E09093B0009091B100987F9460909344
:10087000B1001092B3000BC0909171009D7F9093D6
:10088000710005C0909172009D7F9093720060E0AE
:1008900046DFFF91EF91BF91AF919F918F917F9133
:1008A0006F915F914F913F912F910F900BBE0F90E1
:1008B0000FBE0F901F9018958F929F92AF92BF928C
:1008C0000F931F93CF93DF93CDB7DEB7A1970FB6EA
:1008D000F894DEBF0FBECDBF19A2423008F44AE043
:1008E0008E010F5D1F4F842E912CA12CB12CA501E0
:1008F00094010E948812E62FB901CA010150110922
:10090000EA3014F4E05D01C0E95CD801EC93232BDC
:10091000242B252B61F7B8018DE494E07AD7A196BA
:100920000FB6F894DEBF0FBECDBFDF91CF911F9100
:100930000F91BF90AF909F908F9008950E94DF1409
:10094000FC0144815581608171818DE494E0A1CCEA
:10095000CF93DF93EC018E81BADE8F83813009F56E
:1009600089858F5F89878330E0F080918B068230A4
:1009700018F48F5F80938B06CE01E2DF6EE274E0A5
:100980008DE494E046D76F8170E080E090E04AE02B
:1009900093DF61EE72E08DE494E03BD7898581506E
:1009A0008987DF91CF910895CF92DF92EF92FF92E6
:1009B000CF93DF936C01990FEE08FF08F7FE19C083
:1009C000E0914D04F0914E040190F081E02D6DE234
:1009D0008DE494E01995EC0166277727CB016C191B
:1009E0007D098E099F094AE067DF7C01EC0EFD1E40
:1009F00005C04AE0C701B6015FDF7C0161EE72E02D
:100A00008DE494E006D78E0D9F1DDF91CF91FF906E
:100A1000EF90DF90CF9008954F925F926F927F9208
:100A20009F92AF92BF92CF92DF92EF92FF920F937D
:100A30001F93CF93DF935C01EC0109900020E9F74D
:100A40002197C81BD90B6CD52B013C01C12CD12C93
:100A5000760100E010E0D2D6892BE9F08091EA041B
:100A60009091EB04DC01ED91FC910284F385E02D83
:100A70001995982E55D56B017C01F501E00FF11FFA
:100A80008081891103C00F5F1F4F02C000E010E09A
:100A90000C171D0709F144D5DC01CB018419950918
:100AA000A609B70989389341A105B10510F080E086
:100AB00023C036D5DC01CB018C199D09AE09BF09D5
:100AC0008D3D9540A105B10530F2C114D104E1047A
:100AD000F10409F4C0CFEBCF91D6892B61F080915E
:100AE000EA049091EB04DC01ED91FC910284F38522
:100AF000E02D1995F1CF81E0DF91CF911F910F91FA
:100B0000FF90EF90DF90CF90BF90AF909F907F903D
:100B10006F905F904F900895CF93DF93AAEEB5E06A
:100B2000FD01C191D191209741F049895A89EC0189
:100B300029893A894217530711F1D6E0E830FD07B9
:100B400081F720E030E04D915D91452B89F4220F33
:100B5000331FF901E952FA4F948B838B8091080679
:100B6000909109060196909309068093080607C0A4
:100B70002F5F3F4F2F30310531F780E001C081E01A
:100B8000DF91CF910895CF93DF93DADEEC0161EE30
:100B900072E08DE494E03DD68C0F9D1FDF91CF91E4
:100BA00008958F929F92AF92BF92CF92DF92EF9271
:100BB000FF92CF9390910002981721F09F3F09F088
:100BC000CEC204C0EEE0F2E0C491FEC08093000209
:100BD000EEE0F2E0C491CF3F09F4C1C2C23009F4A3
:100BE0007EC06CF5CC2309F459C0C13009F0ECC0CB
:100BF00010928000109281009091810098609093F3
:100C0000810090918100916090938100282F30E0C5
:100C1000F901E853FE4FE491F0E0EE0FFF1FE255BB
:100C2000FE4F459154915093970640939606F901D3
:100C3000E859FE4FE491E0939506C1E0C7C0C43087
:100C400009F49BC00CF472C0C53009F0BDC010920D
:100C5000200110922101909121019860909321012F
:100C600090912101916090932101282F30E0F901AA
:100C7000E853FE4FE491F0E0EE0FFF1FE255FE4F08
:100C80004591549150938E0640938D06F901E85991
:100C9000FE4FE491E0938C06C5E098C014BC15BCEF
:100CA00094B5926094BD95B5916095BD282F30E0C4
:100CB000F901E853FE4FE491F0E0EE0FFF1FE2551B
:100CC000FE4F4591549150939A0640939906F9012D
:100CD000E859FE4FE491E0939806C0E077C0109287
:100CE000B0001092B1009091B00092609093B0006B
:100CF0009091B10091609093B100282F30E0F901FC
:100D0000E853FE4FE491F0E0EE0FFF1FE255FE4F77
:100D1000459154915093480440934704F901E85990
:100D2000FE4FE491E0934604C2E050C01092900060
:100D30001092910090919100986090939100909101
:100D40009100916090939100282F30E0F901E853D1
:100D5000FE4FE491F0E0EE0FFF1FE255FE4F45918C
:100D600054915093940640939306F901E859FE4F2D
:100D7000E491E0939206C3E029C01092A000109283
:100D8000A1009091A10098609093A1009091A10082
:100D900091609093A100282F30E0F901E853FE4FB5
:100DA000E491F0E0EE0FFF1FE255FE4F45915491A4
:100DB0005093910640939006F901E859FE4FE49153
:100DC000E0938F06C4E002C0C7FDC9C16B0161E0BA
:100DD00033D3E12CF12C8C2F8D7F09F0A0C060E083
:100DE00072E18AE790E0A70196010E94AA124901E8
:100DF0005A01DA01C9010197A109B1098F3F910593
:100E0000A105B10509F008F442C060E472E48FE086
:100E100090E0A70196010E94AA12DA01C901019788
:100E2000A109B109C230E1F48F3F9105A105B105D7
:100E300009F008F492C160E970ED83E090E0A70149
:100E400096010E94AA12DA01C9010197A109B1090C
:100E50008F3F9105A105B10509F088F523E058C041
:100E60008F3F9105A105B105A1F098F068E478EEF7
:100E700081E090E0A70196010E94AA12DA01C9015F
:100E80000197A109B109CC2309F41BC15EC121E07E
:100E900001C022E0CC2371F03BC0D501C4012AE09F
:100EA000B595A795979587952A95D1F70197A109AB
:100EB000B10925E035B5387F232B25BD87C068E40F
:100EC00078EE81E090E0A70196010E94AA12DA0173
:100ED000C9010197A109B1098F3F9105A105B1058C
:100EE00009F008F4ECC064E274EF80E090E0A70140
:100EF00096010E94AA12DA01C9010197A109B1095C
:100F00008F3F9105A105B10511F008F0F8C025E06B
:100F10003091B100387F232B2093B10046C060E0B0
:100F200072E18AE790E0A70196010E94AA12DA0115
:100F3000C9010197A109B109009721E0A207B105F4
:100F400078F068E478EE81E090E0A70196010E94D5
:100F5000AA12DA01C9010197A109B10923E001C070
:100F600021E0C13039F430918100387F232B209368
:100F700081003EC0C33039F430919100387F232B7B
:100F8000209391005DC0C43039F43091A100387FC6
:100F9000232B2093A10069C0C53039F43091210181
:100FA000387F232B2093210175C0C230B1F134F476
:100FB000CC2361F0C13009F0D2C01AC0C43009F4AA
:100FC00054C0F4F1C53009F465C0C9C087BD8FEFC6
:100FD0009FEFDC018093AB069093AC06A093AD0627
:100FE000B093AE0680916E00826080936E00B7C0B1
:100FF00090938900809388008FEF9FEFDC018093AE
:10100000A7069093A806A093A906B093AA0680917C
:101010006F00826080936F00A2C08093B3008FEF57
:101020009FEFDC018093490490934A04A0934B0402
:10103000B0934C04809170008260809370008FC0E8
:1010400090939900809398008FEF9FEFDC0180933D
:10105000A3069093A406A093A506B093A60680913C
:1010600071008260809371007AC09093A900809390
:10107000A8008FEF9FEFDC0180939F069093A0065E
:10108000A093A106B093A206809172008260809323
:10109000720065C090932901809328018FEF9FEF24
:1010A000DC0180939B0690939C06A0939D06B093D1
:1010B0009E068091730082608093730050C024E08C
:1010C00027CF8F3F9105A105B105B9F0B0F062E1DE
:1010D0007AE780E090E0A70196010E94AA12DA0167
:1010E000C9010197A109B1098F3F9105A105B1057A
:1010F00011F008F0D2CE24E0DDCE23E0DBCE62E1B9
:101100007AE780E090E0A70196010E94AA12DA0136
:10111000C9010197A109B1098F3F9105A105B10549
:1011200091F088F0D501C4013AE0B595A79597955F
:1011300087953A95D1F70197A109B109CC2309F414
:10114000B8CE27E0E5CE26E0A5CE8F3F9105A105DC
:10115000B10509F0A0F624E09DCE22E0D9CECF91D2
:10116000FF90EF90DF90CF90BF90AF909F908F90C7
:1011700008950F931F93CF93DF93EC01888199819A
:10118000009729F02A813B812617370788F48B01C5
:101190006F5F7F4F0E94FB13009761F099838883F4
:1011A0001B830A832C813D81232B11F4FC011082C7
:1011B00081E001C080E0DF91CF911F910F910895F0
:1011C000EF92FF920F931F93CF93DF93EC017B017C
:1011D0008A01BA01CEDF2881398181110DC0211524
:1011E000310519F0C9010E946313198218821D820A
:1011F0001C821B821A8206C01D830C83B701C901A1
:101200000E94EC14CE01DF91CF911F910F91FF90BE
:10121000EF900895CF93DF93EC01FB0186179707BA
:10122000A9F0608171816115710521F044815581BA
:10123000C7DF0CC088819981009711F00E94631369
:10124000198218821D821C821B821A82CE01DF91B4
:10125000CF910895FC01808191810C9463138633B2
:1012600008F0865390917B00282F2870977F922B4F
:1012700090937B008770806480937C0080917A00DB
:10128000806480937A0080917A0086FDFCCF809103
:1012900078002091790090E0922B08953FB7F89460
:1012A0008091B4069091B506A091B606B091B706AC
:1012B00026B5A89B05C02F3F19F00196A11DB11DB1
:1012C0003FBFBA2FA92F982F8827820F911DA11DEC
:1012D000B11DBC01CD0142E0660F771F881F991F29
:1012E0004A95D1F708950F931F93FC01028513854A
:1012F00024853585401B510B620B730B77FD02C0B3
:10130000808901C080E01F910F910895FC01428304
:1013100053836483758386819781A085B185480F47
:10132000591F6A1F7B1F42875387648775870895FB
:101330008091020594DF90930405809303058C3B14
:101340009240DCF461E08DE0EAD98091050591E0FE
:10135000980F9093050520910305309104052031E5
:1013600031055CF090918B06923018F49F5F90935A
:101370008B068E5080930505089560E08DE0CFC9FF
:101380008CE095E0E5CA86E195E0E2CA90E0FC01D8
:101390003197E231F10508F04EC08827EE58FF4F33
:1013A0008F4F0C94C612809180008F7703C080917C
:1013B00080008F7D80938000089580918000877FDA
:1013C000F9CF84B58F7702C084B58F7D84BD089531
:1013D0008091B0008F7703C08091B0008F7D8093A3
:1013E000B0000895809190008F7707C080919000A1
:1013F0008F7D03C080919000877F80939000089537
:101400008091A0008F7707C08091A0008F7D03C0DE
:101410008091A000877F8093A00008958091200193
:101420008F7707C0809120018F7D03C080912001BC
:10143000877F809320010895CF93DF9390E0FC0194
:10144000E859FE4F2491FC01E853FE4F8491882314
:1014500061F190E0880F991FFC01E15FFD4FC5919C
:10146000D491FC01E255FE4FA591B491611109C0E0
:101470009FB7F8948881209582238883EC912E234E
:101480000BC0623061F49FB7F8943881822F809549
:1014900083238883EC912E2B2C939FBF06C08FB79C
:1014A000F894E8812E2B28838FBFDF91CF91089588
:1014B0008F929F92AF92BF92CF92DF92EF92FF9264
:1014C0006B017C01EBDE4B015C01C114D104E10432
:1014D000F104E9F0E3DEDC01CB0188199909AA09DE
:1014E000BB09883E9340A105B10578F321E0C21AFB
:1014F000D108E108F10888EE880E83E0981EA11C4F
:10150000B11CC114D104E104F10421F7DECFFF9036
:10151000EF90DF90CF90BF90AF909F908F90089505
:101520002FB7F8946091B0067091B1068091B20621
:101530009091B3062FBF08950F931F93CF93DF931E
:10154000EC01EE85FF85309709F01995E9DF6E8390
:101550007F83888799870A811B812C813D81DC01EB
:10156000CB01800F911FA21FB31F8A879B87AC8777
:10157000BD87DF91CF911F910F9108958F929F9218
:10158000AF92BF92CF92DF92EF92FF920F931F9391
:10159000CF93DF93EC01EE85FF85309709F0199525
:1015A000BFDF4B015C018E016E012EE1C20ED11C2A
:1015B000E12CF12C89A99AA98E159F0524F1D80157
:1015C00053968D919C9154970097C1F0BFEFEB1A01
:1015D000FB0ADC01ED91FC910280F381E02DB50165
:1015E000A4011995882351F0F80183899489DC01BD
:1015F000ED91FC910480F581E02D19950E5F1F4F50
:101600000C151D05B9F68CDF6E837F83888799875B
:101610000A811B812C813D81DC01CB01800F911F50
:10162000A21FB31F8A879B87AC87BD87DF91CF91AD
:101630001F910F91FF90EF90DF90CF90BF90AF90F0
:101640009F908F900895CF92DF92EF92FF920F9329
:101650001F93CF93DF93CDB7DEB728970FB6F894DB
:10166000DEBF0FBECDBF63EE72E0CE0101960E94D9
:101670009B0261E374E080E295E00E94AF0250DFDC
:101680006B017C014DDFDC01CB018C199D09AE099A
:10169000BF0980349F41A105B10520F580E295E0A6
:1016A0000E94C201892B71F380E295E00E94A001A3
:1016B0008F8318860D811E810F5F1F4FB801CE01E9
:1016C000019657DD8823F1F229813A818D819E812F
:1016D000BE01695F7F4F820F931F0E94EC141E832F
:1016E0000D83D0CF61E474E08DE494E00E94AF02FA
:1016F000CE01019648DACE010196ACDD28960FB6F0
:10170000F894DEBF0FBECDBFDF91CF911F910F9137
:10171000FF90EF90DF90CF9008951F920F920FB639
:101720000F9211242F933F938F939F93AF93BF9367
:101730008091B0069091B106A091B206B091B30627
:101740003091AF0623E0230F2D3720F40196A11D21
:10175000B11D05C026E8230F0296A11DB11D2093DF
:10176000AF068093B0069093B106A093B206B093F3
:10177000B3068091B4069091B506A091B606B091DB
:10178000B7060196A11DB11D8093B4069093B506CE
:10179000A093B606B093B706BF91AF919F918F917A
:1017A0003F912F910F900FBE0F901F9018950F93A0
:1017B0001F93CF93DF93EC018C01FE010190002079
:1017C000E9F73197EC1BFD0BC8018C1B9D0B8E17A5
:1017D0009F0778F4D8016D918D018091EA04909172
:1017E000EB04DC01ED91FC910190F081E02D199565
:1017F000E4CFDF91CF911F910F9108958091EA047A
:101800009091EB04DC01ED91FC910084F185E02DD9
:1018100019946115710579F0FB0101900020E9F739
:101820003197AF01461B570BDC01ED91FC91028013
:10183000F381E02D199480E090E008958091EE040A
:101840000EDD9093F1048093F004833C9140FCF012
:101850008091EF0491E0980F9093EF049333B8F0E8
:1018600090918B06923018F49F5F90938B06815372
:101870008093EF0482EF94E063D86EE274E08DE42D
:1018800094E0C7DF8091F0049091F1048DC8089531
:101890008091F8040E9467039093FB048093FA04FC
:1018A000892B01F58091F9048F5F8093F9048330CF
:1018B000C8F080918B06823018F48F5F80938B067E
:1018C0008CEF94E03DD86EE274E08DE494E0A1DF0B
:1018D0008091FA049091FB0467D88091F9048150BB
:1018E0008093F90408950F931F93CF93DF9300D053
:1018F0001F92CDB7DEB78C018FE292E0F8019183A1
:10190000808381E0808B77876687128613861486B2
:10191000158629833A834B835C8302DEF801668354
:10192000778380879187128B018B29813A814B8144
:101930005C812283338344835583DC01CB01820F96
:10194000931FA41FB51F82879387A487B5870F9025
:101950000F900F900F90DF91CF911F910F910895ED
:10196000CF92DF92EF92FF920F931F93CF93DF936B
:101970001F92CDB7DEB76C017B018C010C5F1F4F4E
:1019800063EE72E0C80149830E949B02B701C8015F
:1019900041DC4981F60140830F90DF91CF911F9187
:1019A0000F91FF90EF90DF90CF900895CF92DF924C
:1019B000EF92FF920F931F93CF93DF931F92CDB7B8
:1019C000DEB76C017B018C010C5F1F4F63EE72E090
:1019D000C80149830E949B02B701C8011BDC4981F1
:1019E000F60140830F90DF91CF911F910F91FF90EF
:1019F000EF90DF90CF900895CF93DF93EC0165E3F4
:101A000072E08DE494E005DFCE01BDD860E08E8108
:101A1000DF91CF9111CDEF92FF920F931F93CF9350
:101A2000DF931F92CDB7DEB77C018B0163EE72E0CE
:101A300049830E949B02B801C701ECDB4981F70191
:101A400046830F90DF91CF911F910F91FF90EF9000
:101A50000895CF92DF92EF92FF920F931F93CF934F
:101A6000DF931F92CDB7DEB76C017B018C010C5F59
:101A70001F4F63EE72E0C80149830E949B02B701C9
:101A8000C801C8DB4981F60140830F90DF91CF91F7
:101A90001F910F91FF90EF90DF90CF900895CF931B
:101AA000DF93CDB7DEB7E8970FB6F894DEBF0FBE71
:101AB000CDBF789484B5826084BD84B5816084BDD7
:101AC00085B5826085BD85B5816085BD80916E00DC
:101AD000816080936E00109281008091810082600D
:101AE000809381008091810081608093810080914A
:101AF00080008160809380008091B1008460809339
:101B0000B1008091B00081608093B000809191001D
:101B10008260809391008091910081608093910018
:101B2000809190008160809390008091A1008260FC
:101B30008093A1008091A10081608093A100809199
:101B4000A00081608093A000809121018260809339
:101B500021018091210181608093210180912001E8
:101B600081608093200180917A00846080937A0064
:101B700080917A00826080937A0080917A008160FF
:101B800080937A0080917A00806880937A00109226
:101B9000C100E0915D04F0915E0412E01083E091D9
:101BA0005904F0915A041082E0915B04F0915C04B6
:101BB0008FEC808310926504E0916104F0916204DF
:101BC00096E09083E0915F04F091600480818061F1
:101BD0008083E0915F04F09160048081886080835D
:101BE000E0915F04F0916004808180688083E091DF
:101BF0005F04F091600480818F7D808320E2E22E7B
:101C000025E0F22EE0913005F09131051083E0914E
:101C10002C05F0912D0533E0D32ED082E0912E05D6
:101C2000F0912F0580E4808310923805E09134050F
:101C3000F09135059083E0913205F0913305808174
:101C400080618083E0913205F09133058081886066
:101C50008083E0913205F091330580818068808334
:101C6000E0913205F091330580818F7D808386E19C
:101C700095E0C2DE1092790683EC99E090937806A5
:101C80008093770648EE842E43E0942EA12CB12C4D
:101C900080926B0690926C06A0926D06B0926E06D2
:101CA00080916F0690917006A0917106B0917206B6
:101CB00088519C4FAF4FBF4F80937306909374062B
:101CC000A0937506B09376068CE095E095DE1092B1
:101CD000660680EC99E09093650680936406809296
:101CE000580690925906A0925A06B0925B068091CF
:101CF0005C0690915D06A0915E06B0915F068851EA
:101D00009C4FAF4FBF4F8093600690936106A093A6
:101D10006206B093630665E372E08DE494E079DDDA
:101D200086E095E00E94C30560E08091020584DBB7
:101D30001092530688E999E09093520680935106D9
:101D400010924506109246061092470610924806D9
:101D50008091490690914A06A0914B06B0914C069D
:101D600080934D0690934E06A0934F06B093500675
:101D700065E372E08DE494E04CDD8CEF94E00E942A
:101D8000C30560E08091F80457DB01E00093400652
:101D900088E49CE090933F0680933E068092320652
:101DA00090923306A0923406B092350680913606A2
:101DB00090913706A0913806B091390688519C4F12
:101DC000AF4FBF4F80933A0690933B06A0933C06DB
:101DD000B0933D0665E372E08DE494E01ADD82EF96
:101DE00094E00E94C30560E08091EE0425DB00933F
:101DF0002D068EE19CE090932C0680932B0610928A
:101E00001F06109220061092210610922206809141
:101E1000230690912406A0912506B0912606809372
:101E2000270690932806A0932906B0932A060093CC
:101E30001A0683E29BE0909319068093180680E2CD
:101E40009EE4A0E0B0E080930C0690930D06A09372
:101E50000E06B0930F068091100690911106A09186
:101E60001206B0911306805E914BAF4FBF4F809327
:101E7000140690931506A0931606B093170689E6EC
:101E800096E00E948C0586E596E00E948C0583E42E
:101E900096E00E948C0580E396E00E948C058DE11F
:101EA00096E00E948C0560E472E08DE494E00E946C
:101EB000AF0261E080917C06BFDA61E080917D062F
:101EC000BBDAD9A21AA36E0121E2C20ED11CD092B4
:101ED000ED04C092EC04FCA2EBA2F092EB04E092C1
:101EE000EA048BE692E063DC81EB92E00E940C0551
:101EF000811107C060E572E08DE494E00E94AF02BA
:101F0000F0CF80E792E053DC81EB92E00E940C0579
:101F1000782E882379F3FE0131961192EC15FD0598
:101F2000E1F783E0E82EF12C8CE792E040DCF8DA70
:101F30001B012C01812C912C540100E010E05EDC8F
:101F4000892B31F18091EA049091EB04DC01ED9151
:101F5000FC910284F385E02D1995682EE1DA4B019E
:101F60005C0198012F5F3F4FE1E0F0E0EC0FFD1FB7
:101F7000E00FF11F60822032310544F067E872E023
:101F8000CE01019630D5892B31F130C08901D7CFF0
:101F9000003211059CF7C4DADC01CB0182199309E8
:101FA000A409B50989389341A105B10538F7B8DA14
:101FB000DC01CB0188199909AA09BB098D3D95401F
:101FC000A105B10508F4BBCF81149104A104B104AB
:101FD00009F4B5CFD3CF6CE271E080E090E068DA2D
:101FE00081E0E81AF10809F485CF9ECF772009F443
:101FF00081CF84E992E0DBDB8FE992E00E940C055F
:10200000882351F086EB92E0D2DB81EC92E00E94D3
:102010000C05811115C00AC080ED92E0C8DB81EB90
:1020200092E00E940C058111EDCF64CF80EF92E029
:10203000BEDB81EB92E00E940C05882309F45ACFA5
:1020400084EE92E0B4DB81EB92E00E940C058823E1
:1020500009F450CF6CEF72E08DE494E00E94AF027F
:1020600069E173E08DE494E00E94AF0263E273E003
:1020700080E295E00E94AF0260ED77E080E090E0C2
:1020800017DA61E473E08DE494E00E94AF0269E442
:1020900073E080E295E00E94AF0260ED77E080E0BF
:1020A00090E006DA63E773E08DE494E00E94AF020B
:1020B0006CE773E080E295E00E94AF0260ED77E0AC
:1020C00080E090E0F5D969E873E08DE494E00E9447
:1020D000AF0263E973E080E295E00E94AF0260ED39
:1020E00077E080E090E0E4D96FE973E08DE494E07C
:1020F0000E94AF0260EB73E080E295E00E94AF02C5
:1021000080E295E00E94C201892B29F080E295E0EF
:102110000E94A001F5CF60ED77E080E090E0C8D9A3
:1021200087ED95E02BDA80918B06823009F048C06C
:10213000F7D9009185061091860620918706309187
:102140008806AB01BC01401B510B620B730B8091E5
:10215000820690918306092E000CAA0BBB0B481730
:1021600059076A077B0760F1DBD960938506709396
:102170008606809387069093880680917E069091CC
:102180007F062091890630918A062817390721F4A5
:10219000809180069091810690938A0680938906AB
:1021A0006091890670918A0680917C060E94D10513
:1021B0006091890670918A0680917D060E94D10502
:1021C000AFD9AB01BC018AE096E08DD8882319F025
:1021D0008AE096E0B1D90E946802A2CFCF93DF9344
:1021E00000D000D0CDB7DEB71092230510922205A3
:1021F00048EE53E060E070E04093240550932505DD
:10220000609326057093270581E192E09093210564
:10221000809320052DEC30E030932D0520932C0584
:102220002CEC30E030932F0520932E0528EC30E085
:10223000309331052093300529EC30E0309333059D
:10224000209332052AEC30E0309335052093340595
:102250002EEC30E030933705209336051092390587
:1022600010923A0510923B0510923C0510925004D2
:1022700010924F04409351045093520460935304BE
:102280007093540490934E0480934D0485EC90E039
:1022900090935A048093590484EC90E090935C04EA
:1022A00080935B0480EC90E090935E0480935D04E7
:1022B00081EC90E09093600480935F0482EC90E066
:1022C000909362048093610486EC90E090936404A0
:1022D000809363041092660410926704109268045D
:1022E0001092690410928406109285061092860658
:1022F00010928706109288068091050280937C06D2
:102300008091060280937D068091010290910202E5
:1023100090937F0680937E06209103023091040201
:10232000309381062093800628EE33E030938306B5
:102330002093820690938A068093890620E030E0FD
:10234000A90160E070E089E696E0CDDA20E030E0B7
:10235000A90160E070E086E596E0C5DA20E030E0B3
:10236000A90160E070E083E496E0BDDA20E030E0AF
:10237000A90160E070E080E396E0B5DA20E030E0AB
:10238000A90160E070E08DE196E0ADDA20E030E098
:10239000A90160E070E08AE096E0A5DA20E030E094
:1023A000A90160E070E087ED95E09DDA83E292E0BC
:1023B0009093D8058093D7051092090610920806CD
:1023C000EAEEF5E01192119286E0E830F807D1F7D5
:1023D0001092D9051092DA051092DB051092DC05F7
:1023E0008091DD059091DE05A091DF05B091E005BB
:1023F0008093E1059093E205A093E305B093E40593
:1024000083E08093BD0582E08093BE058DEB95E06F
:102410009093ED048093EC0480E295E09093C005E6
:102420008093BF059093EB048093EA0463E074E02B
:10243000CE0101960E949B024CE0BE016F5F7F4F70
:1024400086E195E0E8DACE0101960E942A096BE068
:1024500074E0CE0101960E949B024BE0BE016F5FCB
:102460007F4F8CE095E0D7DACE0101960E942A09D1
:1024700063E174E0CE0101960E949B0246E3BE0137
:102480006F5F7F4F82E095E06BDACE0101960E948C
:102490002A0969E174E0CE0101960E949B0247E09F
:1024A000BE016F5F7F4F88EF94E080DACE01019626
:1024B0000E942A0963E274E0CE0101960E949B0209
:1024C00047E3BE016F5F7F4F8EEE94E0C2DACE012C
:1024D00001960E942A0926960FB6F894DEBF0FBE19
:1024E000CDBFDF91CF91089582EF94E00E942A0939
:1024F0008CEF94E00E942A0986E095E00E942A0968
:102500008CE095E00E942A0986E195E00C942A0966
:10251000A1E21A2EAA1BBB1BFD010DC0AA1FBB1FE7
:10252000EE1FFF1FA217B307E407F50720F0A21B59
:10253000B30BE40BF50B661F771F881F991F1A94C6
:1025400069F760957095809590959B01AC01BD01F0
:10255000CF010895052E97FB16F400940FD057FD78
:1025600005D0D6DF07FC02D046F408C05095409550
:10257000309521953F4F4F4F5F4F0895909580952F
:10258000709561957F4F8F4F9F4F0895EE0FFF1FFE
:10259000881F8BBF0790F691E02D1994CF93DF939E
:1025A0008230910510F482E090E0E091BA06F0915B
:1025B000BB0620E030E0C0E0D0E0309711F1408170
:1025C000518148175907C0F04817590761F48281B3
:1025D0009381209719F09B838A832BC09093BB062D
:1025E0008093BA0626C02115310519F0421753070A
:1025F00018F49A01BE01DF01EF010280F381E02DA2
:10260000DCCF2115310509F1281B390B24303105A8
:1026100090F412968D919C9113976115710521F09C
:10262000FB019383828304C09093BB068093BA0618
:10263000FD01329644C0FD01E20FF31F8193919397
:10264000225031092D933C933AC02091B806309125
:10265000B906232B41F42091090230910A023093EC
:10266000B9062093B806209107023091080221157F
:10267000310541F42DB73EB740910B0250910C0249
:10268000241B350BE091B806F091B906E217F30769
:10269000A0F42E1B3F0B2817390778F0AC014E5FD2
:1026A0005F4F2417350748F04E0F5F1F5093B90650
:1026B0004093B8068193919302C0E0E0F0E0CF012F
:1026C000DF91CF9108950F931F93CF93DF930097DE
:1026D00009F48CC0FC013297138212820091BA0671
:1026E0001091BB060115110581F420813181820F03
:1026F000931F2091B8063091B9062817390779F54C
:10270000F093B906E093B80671C0D80140E050E0FC
:10271000AE17BF0750F412962D913C911397AD015F
:102720002115310509F1D901F3CF9D01DA01338378
:10273000228360817181860F971F8217930769F446
:10274000EC0128813981260F371F2E5F3F4F3183DF
:1027500020838A819B8193838283452B29F4F09384
:10276000BB06E093BA0642C01396FC93EE93129711
:10277000ED01499159919E01240F351FE217F3078E
:1027800071F480819181840F951F029611969C931C
:102790008E938281938113969C938E931297E0E09F
:1027A000F0E0D80112968D919C911397009719F043
:1027B000F8018C01F6CF8D919C9198012E5F3F4FCF
:1027C000820F931F2091B8063091B9062817390758
:1027D00069F4309729F41092BB061092BA0602C031
:1027E000138212821093B9060093B806DF91CF913D
:1027F0001F910F9108956F927F928F929F92AF9247
:10280000BF92CF92DF92EF92FF920F931F93CF93DD
:10281000DF93EC01009781F4CB01DF91CF911F9101
:102820000F91FF90EF90DF90CF90BF90AF909F906F
:102830008F907F906F90B2CEFC01E60FF71F9C0146
:1028400022503109E217F30708F4A8C0D9010D910D
:102850001C91119706171707A8F00530110508F409
:102860009BC0C80104978617970708F495C00250CB
:102870001109061B170B019311936D937C93CF01E4
:1028800022DF8AC05B01A01AB10A4C01800E911EA2
:10289000A091BA06B091BB0640E050E0E12CF12CCB
:1028A000109709F44AC0A815B905D1F56D907C9030
:1028B0001197630182E0C80ED11CCA14DB0480F1B9
:1028C000A3014A195B096A0182E0C80ED11C129665
:1028D000BC9012971396AC91B5E0CB16D10440F0A2
:1028E000B282A38351834083D9016D937C930AC044
:1028F0000E5F1F4FC301800F911FF90191838083E9
:10290000EB2DFA2FE114F10431F0D7011396FC936B
:10291000EE93129741C0F093BB06E093BA063CC019
:102920008D919C9111974817590708F4AC017D01CE
:1029300012960D90BC91A02DB3CF8091B8069091C6
:10294000B90688159905E1F446175707C8F4809130
:10295000070290910802009741F48DB79EB740910D
:102960000B0250910C02841B950BE817F907B0F489
:10297000F093B906E093B806F901718360830CC047
:10298000CB010CDE7C01009749F0A801BE011BD0F1
:10299000CE0199DEC70104C0CE0102C080E090E004
:1029A000DF91CF911F910F91FF90EF90DF90CF902B
:1029B000BF90AF909F908F907F906F90089581E02F
:1029C00090E0F8942AC0FB01DC0102C001900D9256
:1029D00041505040D8F70895FB01DC0101900D9261
:1029E0000020E1F70895FB0151915523A9F0BF01A3
:1029F000DC014D9145174111E1F759F4CD010190EA
:102A0000002049F04D9140154111C9F3FB014111DE
:102A1000EFCF81E090E00197089511E0C6E1D1E0A9
:102A200000E005C0802FFE01B1DD2196011DC731F8
:0C2A3000D10780E00807B1F7F894FFCF51
:102A3C00FFBC02840304030000BC068000000000FD
:102A4C00000102490191014702C201A001B4010039
:102A5C0000000086097309BE0AE803000000008626
:102A6C000973099C0A436F6E66696775726520006D
:102A7C00436F6E666967757265205069657A6F0081
:102A8C0047534D203A20696E697469616C697A61AB
:102A9C0074696F6E206572726F720041540D0A007A
:102AAC0041542B4346554E3D310D0A0041542B43A6
:102ABC0050494E3F0D0A002B4350494E3A20524587
:102ACC004144590041542B434E4D493F0D0A002BB4
:102ADC00434E4D493A20322C322C302C302C300DB8
:102AEC000A4F4B0D0A0041542B434D47463F0D0AEC
:102AFC00002B434D47463A20310D0A4F4B0D0A002F
:102B0C0041542B434E4D493D322C322C302C302C21
:102B1C00300D0A0041542B434C49503D310D0A00F5
:102B2C0041542B434D47463D310D0A0047534D2030
:102B3C003A20696E697469616C697A6174696F6E47
:102B4C002073756363657373005365742053415030
:102B5C0042520041542B53415042523D332C312CA4
:102B6C0022434F4E54595045222C22475052532247
:102B7C00005365742041504E0041542B5341504238
:102B8C00523D332C312C2241504E222C22696E7432
:102B9C0065726E65742E6C6966652E636F6D2E6240
:102BAC00792200436865636B2069700041542B5394
:102BBC00415042523D312C3100496E6974204854C9
:102BCC0054500041542B48545450494E49540053CE
:102BDC00657474696E67204854545050617261007A
:102BEC0041542B48545450504152413D2255524C63
:102BFC00222C22687474703A2F2F67736D73657270
:102C0C007665722E6865726F6B756170702E636F6E
:102C1C006D2F73696D706C653F746578743D686574
:102C2C006C6C6F26616E6472653D64726F7A646F52
:102C3C007622004D6F74696F6E31004D6F74696F41
:102C4C006E3200536F756E640050726F78696D69E7
:102C5C0074790048616C6C53656E736F7200202040
:102C6C000041542B48545450414354494F4E3D312C
:062C7C00003D3D3D00009B
:00000001FF
